:1000000008308A0000280000FF00030E8301A100D1
:100010000A08A0008A010408A2007708A300780853
:10002000A4007908A5007A08A60003170D08031399
:10003000A70003170F080313A80003170C080313E6
:10004000A90003170E080313AA00831383128C3030
:100050008400001C2D280C184E2822088400230838
:10006000F7002408F8002508F9002608FA002708F8
:1000700003178D000313280803178F0003132908A3
:1000800003178C0003132A0803178E00031320089C
:100090008A00210E8300FF0E7F0E09008A110A12CA
:1000A00054290A108A100A11583E03188A0A82003D
:1000B0002E342D34003400340034003441342D34D7
:1000C0002E342E342E340034003442342D342E3469
:1000D0002D342E340034003443342D342E342E3459
:1000E00000340034003444342E34003400340034FE
:1000F0000034003445342E342E342D342E34003464
:10010000003446342D342D342E3400340034003481
:1001100047342E342E342E342E34003400344834F8
:100120002E342E34003400340034003449342E345C
:100130002D342D342D34003400344A342D342E34F3
:100140002D340034003400344B342E342D342E340E
:100150002E34003400344C342D342D34003400342B
:10016000003400344D342D342E3400340034003447
:1001700000344E342D342D342D340034003400340A
:100180004F342E342D342D342E340034003450347A
:100190002D342D342E342D340034003451342E348B
:1001A0002D342E3400340034003452342E342E34A6
:1001B0002E3400340034003453342D3400340034F1
:1001C00000340034003454342E342E342D340034B2
:1001D0000034003455342E342E342E342D34003473
:1001E000003456342E342D342D3400340034003491
:1001F00057342D342E342E342D34003400345834FA
:100200002D342E342D342D340034003459342D3413
:100210002D342E342E34003400345A342D342D3401
:100220002D342D342D34003430342E342D342D34EF
:100230002D342D34003431342E342E342D342D34DD
:100240002D34003432342E342E342E342D342D34CB
:10025000003433342E342E342E342E342D340034E6
:1002600034342E342E342E342E342E34003435349F
:100270002D342E342E342E342E34003436342D3496
:100280002D342E342E342E34003437342D342D3486
:100290002D342E342E34003438342D342D342D3476
:1002A0002D342E3400343934B00A0319B10A8E01CA
:1002B000FE308F000C308E000C100C108A110A12C8
:1002C0002D28201020102010201020102010201089
:1002D00020100000201020102010201020102010CE
:1002E00020102010000031172026451054294F27D8
:1002F000471041270001321720272E24202BC92226
:100300005410412748000830F80000008711AB1155
:100310002B088316870000008312E20D0712031CCE
:1003200097292B162B08831687009B2983122B12E3
:100330002B088316870000008312AB152B08831649
:1003400087008312871DA229F80B852900008711D9
:10035000AB112B0883168700000083122B162B0885
:1003600083168700000000008312AB152B0883164C
:1003700087008312871DBA29F8010000071A781434
:100380008711AB112B0883168700831207122B12DB
:100390002B0883168700831208002B162B08831660
:1003A000870000008312AB152B088316870000001E
:1003B000831207122B122B0883168700000083126A
:1003C0008711AB112B08831687007E308312E20061
:1003D00083212C30E20083212830E2008321273062
:1003E000F700F70BF129F4292C30E20083212830A3
:1003F000E20083218C30E20083218830E2008321F7
:100400002730F700F70B022A052A0C30E20083217F
:100410000830E2008321CC30E2008321C830E200C2
:100420008321122A00000C30E20083210830E20010
:1004300083216C30E20083216830E2008321273081
:10044000F700F70B212A242A2B122B08831687008A
:1004500000008312AB152B08831687008312871DBB
:100460002F2A0000332A00002B162B088316870042
:10047000000083128A150A122D2878080319452ACC
:1004800077088000840AF80B402A08005D08F039DC
:10049000E0005D080F39E100E10E2E08E0042E08AF
:1004A000E10460080438DE0061080438DF002B1620
:1004B0002B088316870000008312AB152B088316C8
:1004C00087000000831207122B122B088316870067
:1004D000000083128711AB112B08831687007E3032
:1004E0008312E20083215E08E20083216008E200BB
:1004F00083215F08E20083216108E20083212B123F
:100500002B088316870000008312AB152B08831677
:1005100087008312871D8A2A00008E2A00002B166E
:100520002B088316870000002B30F700F70B962A64
:10053000992A831208005930840083130008031994
:10054000AF2A0330F800F701F70BA42AF80BA32A0F
:10055000E330F700F70BAA2A0000800BA12A08005D
:100560000130DD0046220230D9009B2208005808E5
:10057000013A0319BF2A033A0319C72ACE2A803049
:100580005907DA00DD0046220130AF00CE2AC03024
:100590005907DA00DD0046220230AF0008000830BB
:1005A000E1007708E2002B162B0883168700000075
:1005B0008312AB152B08831687008312871DDE2A52
:1005C000071A0314071E0310F80D0000AB112B08C7
:1005D0008316870083128711E10BD32A2B162B0871
:1005E0008316870000008312071262080319FD2A90
:1005F0002B122B088316870083120000AB152B08E3
:10060000831687008312871D032B00008711AB110F
:100610002B08831687000000831207122B122B0869
:1006200083168700831208005B080A3C031D2C2BED
:100630002F08013A0319202B033A0319262B2B2BE1
:10064000C030DD0046220230AF002B2B8030DD00B1
:1006500046220130AF007C2C2E08F238DD005D0808
:10066000DE002B162B088316870000008312AB15C3
:100670002B08831687000000831207122B122B0809
:1006800083168700000083128711AB112B08831695
:1006900087007E308312E20083215D08E20083211F
:1006A0005D080438E000E20083212B162B08831636
:1006B000870000008312AB152B088316870000000B
:1006C0008312871D612B07122B122B0883168700BC
:1006D000000083128711AB112B08831687007F302F
:1006E0008312E2008321F701CF2278087039DF00FE
:1006F0002B162B088316870000008312AB152B08DE
:100700008316870000008312871D842B07122B128B
:100710002B0883168700000083128711AB112B086A
:10072000831687007E308312E20083215D08E20099
:1007300083215D080438E000E20083212B162B089A
:100740008316870000008312AB152B0883168700E1
:1007500000008312871DAA2B07122B122B08831669
:100760008700000083128711AB112B0883168700C6
:100770007F308312E2008321F701CF227808F0391D
:10078000DD002B162B088316870000008312AB15A3
:100790002B088316870000008312871DCD2B0712BC
:1007A0002B122B0883168700000083128711AB11D0
:1007B0002B08831687007E308312E20083215E08B7
:1007C000E2008321F830DE055E08E20083212B126F
:1007D0002B088316870000008312AB152B088316A5
:1007E00087008312871DF22B0000F62B00002B16CA
:1007F0002B088316870000008312DD0E5D08DF04DE
:100800002C30F700F70B022C052C5F08F800780855
:10081000DC005B08DD005D08F039E0005D080F39A1
:10082000E100E10E2E08E0042E08E104E00AE10AEE
:1008300060080538DE0061080538DF002B162B083C
:100840008316870000008312AB152B0883168700E0
:100850000000831207122B122B088316870000005A
:1008600083128711AB112B08831687007E30831209
:10087000E20083215E08E20083216008E200832118
:100880005F08E20083216108E20083212B122B081C
:100890008316870000008312AB152B088316870090
:1008A0008312871D512C0000552C00002B162B089D
:1008B0008316870000002B30F700F70B5D2C602CAF
:1008C00083122F08013A0319692C033A0319732C78
:1008D0007C2C5C08273C031D722CC030DD004622B6
:1008E0000230AF007C2C5C08673C031D7C2C803000
:1008F000DD0046220130AF0008000B08D8008B1342
:10090000831603178C170C140000000083120313C6
:10091000D81B8B1703170C087F390319D12C03132D
:10092000D80003170D080313D90003170F0803138A
:10093000DA005808DB001423590803178D0003134D
:100940005A0803178F0003130B08DB008B13831661
:1009500003178C170C140000000083120313DB1B19
:100960008B1703170C0D0E0D7F390319D12C0313B0
:10097000D80003170D080313D90003170F0803133A
:10098000DA005808DB001423590803178D000313FD
:100990005A0803178F008D0A03198F0A03137D2C41
:1009A00003170313080080080319E82CD901040871
:1009B000D8005910831B59140008DB001423580871
:1009C0008400831359188317840A0319850AD32CCA
:1009D0000800F701F801610803106218F707F70C27
:1009E000F80CE218F707F70CF80C6219F707F70C88
:1009F000F80CE219F707F70CF80C621AF707F70C76
:100A0000F80CE21AF707F70CF80C621BF707F70C63
:100A1000F80CE21BF707F70CF80C080032308400E2
:100A20008313F7010630F8003D22B80108000B08D7
:100A3000D9008B13831603178C170C1400000000C9
:100A400083120313D91B8B1703178C080319412D2D
:100A50000D080313D90003170F080313DA00031757
:100A60000C080313DB001423590803178D0003132C
:100A70005A0803178F008D0A03198F0A0313172DC5
:100A80000317031308008316061483120618B72DE4
:100A9000B101B001353090008E01FE308F000C3076
:100AA0008E0083160C14C03083128B043230D900B0
:100AB0009B22831608108312081483168810831251
:100AC000881083160614831206187A2D3108013C0B
:100AD0000318792DFF3A031D712D3008583C031877
:100AE000792D83160810831208108316881083123C
:100AF0008814612D8316081083120810831688103D
:100B00008312881483160C1083120B138B138B1B08
:100B1000862D3008F8003108F9007908CB007808F4
:100B2000CA004B08013C03189E2DFF3A031D9C2D63
:100B30004A08583C03189E2D2D309F2D2E30D8008A
:100B40005808D9003808B80A323E8400831359087F
:100B50008000323038078400831380010230D800CF
:100B6000D901B722323084008313D324A72F8316F0
:100B7000861483128618522E6430D9009B22D80125
:100B80005808233C031C3B2E5808E1000730E200C4
:100B9000E9247808DF00E0015F08E10059308400B3
:100BA000831360088407610851208000003803190E
:100BB000DC2DE10AE00ACE2DE0013230DF00E20157
:100BC0005930E1006008FA005F08840083137A1846
:100BD00083170008E3006208FA00610884008313A9
:100BE0007A18831700086302031D0D2E6008FA00AF
:100BF0005F08840083137A1883178008031D032E6F
:100C00000030F800252E6008FA005F08DF0A03199B
:100C1000E00AE10A0319E20AE22D6008FA005F081F
:100C200084008313601883170008E3006208FA0049
:100C30006108840083136218831700086302031895
:100C4000232EFF30242E0130F800F808031D392E22
:100C50004908C90A393E840083135808E100073067
:100C6000E200E924063078075120F80080000E25C4
:100C7000432ED80AC02D4908C90A393E840083137F
:100C80003F3080000E25B0220130D800D901B722B4
:100C9000393084008313D324831686148312861C70
:100CA0004C2EA72F8316061583120619F12E32300B
:100CB000D9009B22CC0149084C020318EB2E393095
:100CC0004C07840083130008CD00CE014E08233C5E
:100CD000031CE92E4E08E1000730E200E92406304B
:100CE00078075120F8004D02031DE72E0230D8008E
:100CF000D901B7224E08E1000730E200E924780864
:100D0000D8004D08DB0014233A30DB0014232030D8
:100D1000DB001423583003178D0000308F000313BD
:100D2000580803178D0703188F0A03131725CF01DF
:100D30004E08E1000730E200E9244F08780751200F
:100D4000003A0319D52E83168810831288104E0896
:100D5000E1000730E200E9244F08780751202D3CDC
:100D6000031DB62E0230FA005830B82EFA01C830F2
:100D7000D0007A08D1005108D800D80AD803031946
:100D8000C52EFF30D9009B22BE2E5008D9009B22D1
:100D900083168810831288140230D800C830D90016
:100DA0009B22D80BCE2ECF0A982E0230D800D90124
:100DB000B722613003178D0001308F0003137D24AB
:100DC0000430D800C830D9009B22D80BE22ECE0ABE
:100DD000662ECC0A5B2E831606158312061DEB2E9B
:100DE000A72F8316861583128619902F3230D900CB
:100DF0009B22D2014908520203188A2F3930520728
:100E0000840083130008D300D4015408233C031C3E
:100E1000882F5408E1000730E200E9240630780703
:100E20005120F8005302031D862F0230D800D9014B
:100E3000B7225408E1000730E200E9247808D8001E
:100E40005308DB0014233A30DB0014232030DB008E
:100E50001423583003178D0000308F0003135808F7
:100E600003178D0703188F0A03131725D50154089C
:100E7000E1000730E200E924550878075120003AE4
:100E80000319742F83160810831208145408E10004
:100E90000730E200E9245508780751202D3C031D56
:100EA000552F0230FA005830572FFA01C830D600BB
:100EB0007A08D7005708D800D80AD8030319642F36
:100EC000FF30D9009B225D2F5608D9009B22831644
:100ED0000810831208100230D800C830D9009B22B5
:100EE000D80B6D2FD50A372F0230D800D901B72281
:100EF0006A3003178D0001308F0003137D24043006
:100F0000D800C830D9009B22D80B812FD40A052FD6
:100F1000D20AFA2E831686158312861D8A2FA72FD2
:100F2000831606168312061AA72F3230D9009B2289
:100F3000B0220E25393084008313F7011030F800F9
:100F40003D22C901831606168312061EA22F8A159A
:040F50000A127828E1
:1010000003081F3983008316031787114D3003131C
:101010009900A6309800903083129800FF30AB0002
:101020000830AE000130AF00B101B001B801C90114
:10103000831603170908C039890003131F129F1272
:101040000030031788008312870188018901831308
:101050000313AC01AD018A11CD298A150030831626
:1010600088001F30860088010230831288003230E9
:1010700084008313F7010630F8008A113D228A1597
:10108000393084008313F7011030F8008A113D22B3
:101090008A158A11B0228A150130D800D9018A1127
:1010A000B7228A15733003178D0001308F008A1123
:1010B00003137D248A150230D800D9018A11B72282
:1010C0008A157B3003178D0001308F008A110313BE
:1010D0007D248A150630CA00FA30D9008A119B2275
:1010E0008A15CA0B6C288A11B0228A158A11432DE1
:0610F0008A15762863005A
:04400E00E22CFF3F62
:00000001FF
;PIC16F887
;CRC=BA25  CREATED="06-Jul-24 00:06"
