:1000000005308A00792D0000FF00030E8301A10056
:100010000A08A0008A010408A2007708A300780853
:10002000A4007908A5007A08A60003170D08031399
:10003000A70003170F080313A80003170C080313E6
:10004000A90003170E080313AA00831383128C3030
:100050008400001C2D280C184E2822088400230838
:10006000F7002408F8002508F9002608FA002708F8
:1000700003178D000313280803178F0003132908A3
:1000800003178C0003132A0803178E00031320089C
:100090008A00210E8300FF0E7F0E09008A110A12CA
:1000A0005F290A108A100A11583E03188A0A820032
:1000B0002E342D34003400340034003441342D34D7
:1000C0002E342E342E340034003442342D342E3469
:1000D0002D342E340034003443342D342E342E3459
:1000E00000340034003444342E34003400340034FE
:1000F0000034003445342E342E342D342E34003464
:10010000003446342D342D342E3400340034003481
:1001100047342E342E342E342E34003400344834F8
:100120002E342E34003400340034003449342E345C
:100130002D342D342D34003400344A342D342E34F3
:100140002D340034003400344B342E342D342E340E
:100150002E34003400344C342D342D34003400342B
:10016000003400344D342D342E3400340034003447
:1001700000344E342D342D342D340034003400340A
:100180004F342E342D342D342E340034003450347A
:100190002D342D342E342D340034003451342E348B
:1001A0002D342E3400340034003452342E342E34A6
:1001B0002E3400340034003453342D3400340034F1
:1001C00000340034003454342E342E342D340034B2
:1001D0000034003455342E342E342E342D34003473
:1001E000003456342E342D342D3400340034003491
:1001F00057342D342E342E342D34003400345834FA
:100200002D342E342D342D340034003459342D3413
:100210002D342E342E34003400345A342D342D3401
:100220002D342D342D34003430342E342D342D34EF
:100230002D342D34003431342E342E342D342D34DD
:100240002D34003432342E342E342E342D342D34CB
:10025000003433342E342E342E342E342D340034E6
:1002600034342E342E342E342E342E34003435349F
:100270002D342E342E342E342E34003436342D3496
:100280002D342E342E342E34003437342D342D3486
:100290002D342E342E34003438342D342D342D3476
:1002A0002D342E34003439340A148A100A1182078E
:1002B00042347534743474346F346E340034AE0A9E
:1002C0000319AF0A8E01FE308F000C308E000C1027
:1002D0000C108A110A122D28201020102010201036
:1002E00020102010201020100000201020102010BE
:1002F000201020102010201020100000CD37E432F4
:100300003A10A539000131172026451054294F27EE
:10031000471041270001321720272E24202BC92205
:100320005410412748000830F80000008711AB1135
:100330002B088316870000008312E40D0712031CAC
:10034000A7292B162B0883168700AB2983122B12A3
:100350002B088316870000008312AB152B08831629
:1003600087008312871DB229F80B95290000871199
:10037000AB112B0883168700000083122B162B0865
:1003800083168700000000008312AB152B0883162C
:1003900087008312871DCA29F8010000071A781404
:1003A0008711AB112B0883168700831207122B12BB
:1003B0002B0883168700831208002B162B08831640
:1003C000870000008312AB152B08831687000000FE
:1003D000831207122B122B0883168700000083124A
:1003E0008711AB112B08831687007E308312E4003F
:1003F00093212C30E40093212830E400932127300E
:10040000F700F70B012A042A2C30E400932128304E
:10041000E40093218C30E40093218830E4009321A0
:100420002730F700F70B122A152A0C30E40093212D
:100430000830E4009321CC30E4009321C830E4007C
:100440009321222A00000C30E40093210830E400BC
:1004500093216C30E40093216830E400932127302D
:10046000F700F70B312A342A2B122B08831687004A
:1004700000008312AB152B08831687008312871D9B
:100480003F2A0000432A00002B162B088316870002
:10049000000083128A110A12A62D78080319552A22
:1004A00077088000840AF80B502A08005F08F039AA
:1004B000E2005F080F39E300E30E2C08E2042C0889
:1004C000E30462080438E00063080438E1002B16F6
:1004D0002B088316870000008312AB152B088316A8
:1004E00087000000831207122B122B088316870047
:1004F000000083128711AB112B08831687007E3012
:100500008312E40093216008E40093216208E40070
:1005100093216108E40093216308E40093212B12E6
:100520002B088316870000008312AB152B08831657
:1005300087008312871D9A2A00009E2A00002B162E
:100540002B088316870000002B30F700F70BA62A34
:10055000A92A831208005530840083130008031968
:10056000BF2A0330F800F701F70BB42AF80BB32ABF
:10057000E330F700F70BBA2A0000800BB12A08001D
:100580000130DF0056220230D500AB2208005408AB
:10059000013A0319CF2A033A0319D72ADE2A8030F9
:1005A0005507D600DF0056220130AD00DE2AC030EC
:1005B0005507D600DF0056220230AD000800083093
:1005C000E3007708E4002B162B0883168700000051
:1005D0008312AB152B08831687008312871DEE2A22
:1005E000071A0314071E0310F80D0000AB112B08A7
:1005F0008316870083128711E30BE32A2B162B083F
:1006000083168700000083120712640803190D2B5C
:100610002B122B088316870083120000AB152B08C2
:10062000831687008312871D132B00008711AB11DF
:100630002B08831687000000831207122B122B0849
:1006400083168700831208005D080A3C031D3C2BBB
:100650002D08013A0319302B033A0319362B3B2B93
:10066000C030DF0056220230AD003B2B8030DF006F
:1006700056220130AD008C2C2C08F238DF005F08C8
:10068000E0002B162B088316870000008312AB15A1
:100690002B08831687000000831207122B122B08E9
:1006A00083168700000083128711AB112B08831675
:1006B00087007E308312E40093215F08E4009321D9
:1006C0005F080438E200E40093212B162B08831600
:1006D000870000008312AB152B08831687000000EB
:1006E0008312871D712B07122B122B08831687008C
:1006F000000083128711AB112B08831687007F300F
:100700008312E4009321F701DF2278087039E100B9
:100710002B162B088316870000008312AB152B08BD
:100720008316870000008312871D942B07122B125B
:100730002B0883168700000083128711AB112B084A
:10074000831687007E308312E40093215F08E40063
:1007500093215F080438E200E40093212B162B0854
:100760008316870000008312AB152B0883168700C1
:1007700000008312871DBA2B07122B122B08831639
:100780008700000083128711AB112B0883168700A6
:100790007F308312E4009321F701DF227808F039DB
:1007A000DF002B162B088316870000008312AB1581
:1007B0002B088316870000008312871DDD2B07128C
:1007C0002B122B0883168700000083128711AB11B0
:1007D0002B08831687007E308312E4009321600883
:1007E000E4009321F830E0056008E40093212B1227
:1007F0002B088316870000008312AB152B08831685
:1008000087008312871D022C0000062C00002B1687
:100810002B088316870000008312DF0E5F08E104B7
:100820002C30F700F70B122C152C6108F800780813
:10083000DE005D08DF005F08F039E2005F080F3975
:10084000E300E30E2C08E2042C08E304E20AE30AC6
:1008500062080538E00063080538E1002B162B0814
:100860008316870000008312AB152B0883168700C0
:100870000000831207122B122B088316870000003A
:1008800083128711AB112B08831687007E308312E9
:10089000E40093216008E40093216208E4009321BE
:1008A0006108E40093216308E40093212B122B08D4
:1008B0008316870000008312AB152B088316870070
:1008C0008312871D612C0000652C00002B162B085D
:1008D0008316870000002B30F700F70B6D2C702C6F
:1008E00083122D08013A0319792C033A0319832C3A
:1008F0008C2C5E08273C031D822CC030DF00562262
:100900000230AD008C2C5E08673C031D8C2C8030BF
:10091000DF0056220130AD0008000B08D3008B1316
:10092000831603178C170C140000000083120313A6
:10093000D31B8B1703170C087F390319E12C031302
:10094000D30003170D080313D40003170F08031374
:10095000D5005308DD002423540803178D0003132A
:10096000550803178F0003130B08D6008B1383164B
:1009700003178C170C140000000083120313D61BFE
:100980008B1703170C0D0E0D7F390319E12C031380
:10099000D30003170D080313D40003170F08031324
:1009A000D5005308DD002423540803178D000313DA
:1009B000550803178F008D0A03198F0A03138D2C16
:1009C000031703130800AF01AE01353090008E010C
:1009D000FE308F000C308E0083160C14C030831252
:1009E0008B04080083160C1083120B138B138B1BC4
:1009F000F62C2E08F8002F08F900080080080319CB
:100A0000132DDA010408D9005A10831B5A14000868
:100A1000DD0024235908840083135A188317840A9D
:100A20000319850AFE2C0800F701F8015608031087
:100A30005718F707F70CF80CD718F707F70CF80C4E
:100A40005719F707F70CF80CD719F707F70CF80C3C
:100A5000571AF707F70CF80CD71AF707F70CF80C2A
:100A6000571BF707F70CF80CD71BF707F70CF80C18
:100A70000800303084008313F7010630F8004D225F
:100A8000B60108000B08D4008B13831603178C17CC
:100A90000C140000000083120313D41B8B170317E0
:100AA0008C0803196C2D0D080313D40003170F08CD
:100AB0000313D50003170C080313DD002423540887
:100AC00003178D000313550803178F008D0A0319B0
:100AD0008F0A0313422D03170313080039253730FB
:100AE00084008313F7011030F8004D22C701C022A3
:100AF000080003081F3983008316031787114D3040
:100B000003139900A6309800903083129800FF30AC
:100B1000AB000830AC000130AD00AF01AE01B60152
:100B2000C7014810831603170908C0398900031349
:100B30001F129F120030031788008312870188015B
:100B4000890183130313C901CA01DD29003083160B
:100B500088001F3086008801023083128800303000
:100B600084008313F7010630F8004D2237308400EB
:100B70008313F7011030F8004D22C0220130D40059
:100B8000D501C722833003178D0001308F00031376
:100B90008D240230D400D501C7228B3003178D007D
:100BA00001308F0003138D240630CB00FA30D500BE
:100BB000AB22CB0BD62DC0228A1500288A11DC2D42
:020BC0006300D0
:1010000083160614831206186928481869288A115D
:10101000E3248A153230D5008A11AB228A15831653
:101020000810831208148316881083128810831600
:1010300006148312061830282F08013C03182F28A5
:10104000FF3A031D27282E08583C03182F28831623
:10105000081083120810831688108312881417282A
:1010600083160810831208108316881083128814C0
:101070008A11F2248A157908CE007808CD004E082E
:10108000013C03184C28FF3A031D4A284D08583CE0
:1010900003184C282D304D282E30CF004F08D0009B
:1010A0003608B60A303E8400831350088000303082
:1010B00036078400831380010230D400D5018A11E1
:1010C000C7228A153030840083138A11FE248A15C2
:1010D000842B83168614831286181D2948181D290F
:1010E0006430D5008A11AB228A15B6080319172976
:1010F000CD014D08233C031CFE284D08D6000730C7
:10110000D7008A1114258A157808D400D50154080F
:10111000D6004E30840083135508840756088A1180
:1011200051208A158000003803199928D60AD50A5B
:101130008928D5013030D400D7014E30D60055086B
:10114000FA005408840083137A1883170008D80023
:101150005708FA005608840083137A18831700088A
:101160005802031DCA285508FA0054088400831346
:101170007A1883178008031DC0280030F800E22881
:101180005508FA005408D40A0319D50AD60A0319D7
:10119000D70A9F285508FA0054088400831355186D
:1011A00083170008D8005708FA00560884008313F4
:1011B00057188317000858020318E028FF30E12869
:1011C0000130F800F808031DFC284708C70A373E1D
:1011D000840083134D08D6000730D7008A111425E8
:1011E0008A15063078078A1151208A15F800800088
:1011F0008A1139258A150829CD0A79284708C70A8E
:10120000373E840083133F3080008A1139258A15C8
:101210008A11C0228A150130D400D5018A11C72253
:101220008A153730840083138A11FE248A158316A9
:1012300086148312861C1729842B831606158312A5
:101240000619E2293230D5008A11AB228A15CD0168
:1012500047084D020318DC2937304D0784008313FB
:101260000008CE00CF014F08233C031CDA294F08A9
:10127000D6000730D7008A1114258A150630780762
:101280008A1151208A15F8004E02031DD829023018
:10129000D400D5018A11C7228A154F08D60007301D
:1012A000D7008A1114258A157808D3004E08DD006E
:1012B0008A1124238A153A30DD008A1124238A15E5
:1012C0002030DD008A1124238A15583003178D0041
:1012D00000308F000313530803178D0703188F0A7C
:1012E0008A11031342258A15D0014F08D600073012
:1012F000D7008A1114258A15500878078A115120C1
:101300008A15003A0319C0298316881083128810A1
:101310004F08D6000730D7008A1114258A155008C7
:1013200078078A1151208A152D3C031D9B29023014
:10133000FA0058309D29FA01C830D1007A08D2004D
:101340005208D300D30AD3030319AC29FF30D500C8
:101350008A11AB228A15A3295108D5008A11AB2224
:101360008A1583168810831288140230D300C8307F
:10137000D5008A11AB228A15D30BB729D00A75295B
:101380000230D400D5018A11C7228A156C300317A8
:101390008D0001308F008A1103138D248A150430CB
:1013A000D300C830D5008A11AB228A15D30BD129BE
:1013B000CF0A3329CD0A2829831606158312061D64
:1013C000DC29842B8316861583128619A72A3230CE
:1013D000D5008A11AB228A15CD0147084D020318AA
:1013E000A12A37304D07840083130008CE00CF01B7
:1013F0004F08233C031C9F2A4F08D6000730D70014
:101400008A1114258A15063078078A1151208A1509
:10141000F8004E02031D9D2A0230D400D5018A1126
:10142000C7228A154F08D6000730D7008A11142525
:101430008A157808D3004E08DD008A1124238A1506
:101440003A30DD008A1124238A152030DD008A110C
:1014500024238A15583003178D0000308F000313A2
:10146000530803178D0703188F0A8A1103134225A7
:101470008A15D0014F08D6000730D7008A111425ED
:101480008A15500878078A1151208A15003A0319E5
:10149000852A83160810831208144F08D6000730D7
:1014A000D7008A1114258A15500878078A1151200F
:1014B0008A152D3C031D602A0230FA005830622A3A
:1014C000FA01C830D1007A08D2005208D300D30AFA
:1014D000D3030319712AFF30D5008A11AB228A1574
:1014E000682A5108D5008A11AB228A158316081084
:1014F000831208100230D300C830D5008A11AB2205
:101500008A15D30B7C2AD00A3A2A0230D400D5019E
:101510008A11C7228A15753003178D0001308F009C
:101520008A1103138D248A150430D300C830D500E6
:101530008A11AB228A15D30B962ACF0AF829CD0A35
:10154000ED29831686158312861DA12A842B831606
:1015500006168312061A842B8A11E3248A15323068
:10156000D5008A11AB228A15831606168312061A35
:10157000CB2A2E08F8002F08F9007908CF00780848
:10158000CE004F08033C031CCB2A031DB42A4E088F
:10159000E73C0318B42A8A11F2248A157908CC0092
:1015A0007808CB004C08023C0318812BFF3A031D3E
:1015B000DD2A4B08E73C0318812B0130C8068A114D
:1015C0006E258A158A11C0228A150130D400D501F2
:1015D0008A11C7228A154818FE2AF8010730F70039
:1015E0004D308400831378088A1154218A158000B5
:1015F000F80A840AF70BF32A4D30082B5530CD003A
:101600004130CE005230CF005430D000D1014D30A7
:10161000D5007E3003178D0001308F000310063097
:101620000313D9000B08DA008B13831603178C17EA
:101630000C140000000083120313DA1B8B1703182D
:101640004B2B03170C087F390313DA0003170D081F
:101650000313DB0003170F080313DC005A08DD0037
:101660008A1124238A155B0803178D0003135C0875
:1016700003178F0003130B08DD008B13831603176A
:101680008C170C140000000083120313DD1B8B1752
:10169000D90B4B2B6C2B03170C0D0E0D7F3903133D
:1016A000DA0003170D080313DB0003170F080313F9
:1016B000DC005A08DD008A1124238A155B08031711
:1016C0008D0003135C0803178F008D0A03198F0A1E
:1016D00003100313D90B122B5508840083135618DB
:1016E00083178A11FE248A150630D400FA30D500FB
:1016F0008A11AB228A15D40B762B8A11C0228A1547
:0E170000842B8A116E258A158A110A12DE2D9D
:04400E00E22CFF3F62
:00000001FF
;PIC16F887
;CRC=FD6E  CREATED="06-Jul-24 22:50"
