:1000000008308A007E280000FF00030E8301A10053
:100010000A08A0008A010408A2007708A300780853
:10002000A4007908A5007A08A60003170D08031399
:10003000A70003170F080313A80003170C080313E6
:10004000A90003170E080313AA00831383128C3030
:100050008400001C2D280C184E2822088400230838
:10006000F7002408F8002508F9002608FA002708F8
:1000700003178D000313280803178F0003132908A3
:1000800003178C0003132A0803178E00031320089C
:100090008A00210E8300FF0E7F0E09008A110A12CA
:1000A00054290A108A100A11583E03188A0A82003D
:1000B0002E342D34003400340034003441342D34D7
:1000C0002E342E342E340034003442342D342E3469
:1000D0002D342E340034003443342D342E342E3459
:1000E00000340034003444342E34003400340034FE
:1000F0000034003445342E342E342D342E34003464
:10010000003446342D342D342E3400340034003481
:1001100047342E342E342E342E34003400344834F8
:100120002E342E34003400340034003449342E345C
:100130002D342D342D34003400344A342D342E34F3
:100140002D340034003400344B342E342D342E340E
:100150002E34003400344C342D342D34003400342B
:10016000003400344D342D342E3400340034003447
:1001700000344E342D342D342D340034003400340A
:100180004F342E342D342D342E340034003450347A
:100190002D342D342E342D340034003451342E348B
:1001A0002D342E3400340034003452342E342E34A6
:1001B0002E3400340034003453342D3400340034F1
:1001C00000340034003454342E342E342D340034B2
:1001D0000034003455342E342E342E342D34003473
:1001E000003456342E342D342D3400340034003491
:1001F00057342D342E342E342D34003400345834FA
:100200002D342E342D342D340034003459342D3413
:100210002D342E342E34003400345A342D342D3401
:100220002D342D342D34003430342E342D342D34EF
:100230002D342D34003431342E342E342D342D34DD
:100240002D34003432342E342E342E342D342D34CB
:10025000003433342E342E342E342E342D340034E6
:1002600034342E342E342E342E342E34003435349F
:100270002D342E342E342E342E34003436342D3496
:100280002D342E342E342E34003437342D342D3486
:100290002D342E342E34003438342D342D342D3476
:1002A0002D342E3400343934AE0A0319AF0A8E01CE
:1002B000FE308F000C308E000C100C108A110A12C8
:1002C0002D28201020102010201020102010201089
:1002D00020100000201020102010201020102010CE
:1002E0002010201000004927D02A541D2021552A13
:1002F000D4274E004927D02A541DA02A4129540052
:1003000031172026451054294F2747104127000157
:10031000321720272E24202BC922541041274800B1
:10032000840A00088A00840300088200080008305C
:10033000F8009A298711AB112B088316870000005B
:100340008312DE0D0712031CAB292B162B08831614
:100350008700AF2983122B122B0883168700000019
:100360008312AB152B08831687008312871DB629CD
:10037000F80B9929BB298711AB112B08831687002D
:10038000000083122B162B08831687000000000044
:100390008312AB152B08831687008312871DCE2985
:1003A000F8010000071A78148711AB112B08831687
:1003B0008700831207122B122B08831687008312E3
:1003C00008002B162B0883168700E6298312AB152D
:1003D0002B08831687000000831207122B122B08AC
:1003E00083168700F32983128711AB112B0883161C
:1003F00087007E308312DE0097212C30DE009721AB
:100400002830DE0097212730F700F70B052A082A4D
:100410002C30DE0097212830DE0097218C30DE0062
:1004200097218830DE0097212730F700F70B162A36
:10043000192A0C30DE0097210830DE009721CC30DD
:10044000DE009721C830DE009721262A00000C30FC
:10045000DE0097210830DE0097216C30DE00972106
:100460006830DE0097212730F700F70B352A382A4D
:100470002B122B088316870000008312AB152B0864
:10048000831687008312871D432A462A472A0000C5
:100490002B162B08831687004D2A83128A150A1201
:1004A000AC2878080319592A77088000840AF80BC9
:1004B000542A08005908F039DC0059080F39DD00CA
:1004C000DD0E2C08DC042C08DD045C080438DA009E
:1004D0005D080438DB002B162B0883168700702A72
:1004E0008312AB152B0883168700000083120712B6
:1004F0002B122B08831687007D2A83128711AB11DC
:100500002B08831687007E308312DE0097215A085D
:10051000DE0097215C08DE0097215B08DE00972152
:100520005D08DE0097212B122B0883168700000040
:100530008312AB152B08831687008312871D9E2A12
:10054000A12AA22A00002B162B0883168700A82AAE
:100550002B30F700F70BAA2AAD2A8312080055307A
:100560008400831300080319C32A0330F800F7013D
:10057000F70BB82AF80BB72AE330F700F70BBE2ABF
:100580000000800BB52A08000130D9005A22023041
:10059000D500AF2208005408013A0319D32A033AC0
:1005A0000319DB2AE22A80305507D600D9005A22E7
:1005B0000130AD00E22AC0305507D600D9005A22DA
:1005C0000230AD0008000830DD007708DE002B1691
:1005D0002B088316870000008312AB152B088316A7
:1005E00087008312871DF22A071A0314071E0310BF
:1005F000F80DFA2AAB112B08831687008312871196
:10060000DD0BE72A2B162B088316870000008312C8
:1006100007125E080319112B2B122B088316870073
:1006200083120000AB152B08831687008312871DE9
:10063000172B1A2B8711AB112B088316870000008C
:10064000831207122B122B088316870083120800CF
:1006500057080A3C031D402B2D08013A0319342B7F
:10066000033A03193A2B3F2BC030D9005A220230EB
:10067000AD003F2B8030D9005A220130AD00902CC4
:100680002C08F238D9005908DA002B162B088316EB
:1006900087004A2B8312AB152B08831687000000B6
:1006A000831207122B122B0883168700572B8312F5
:1006B0008711AB112B08831687007E308312DE0072
:1006C00097215908DE00972159080438DC00DE0024
:1006D00097212B162B08831687006E2B8312AB15E0
:1006E0002B088316870000008312871D752B0712C5
:1006F0002B122B08831687007D2B83128711AB11D9
:100700002B08831687007F308312DE009721F701C4
:10071000E32278087039DB002B162B08831687003C
:10072000912B8312AB152B088316870000008312D0
:10073000871D982B07122B122B0883168700A02BDE
:1007400083128711AB112B08831687007E3083122A
:10075000DE0097215908DE00972159080438DC0093
:10076000DE0097212B162B0883168700B72B8312E8
:10077000AB152B088316870000008312871DBE2B44
:1007800007122B122B0883168700C62B83128711A2
:10079000AB112B08831687007F308312DE00972170
:1007A000F701E3227808F039D9002B162B088316BD
:1007B0008700DA2B8312AB152B0883168700000005
:1007C0008312871DE12B07122B122B08831687003B
:1007D000E92B83128711AB112B08831687007E301B
:1007E0008312DE0097215A08DE009721F830DA05DF
:1007F0005A08DE0097212B122B0883168700000071
:100800008312AB152B08831687008312871D062CD5
:10081000092C0A2C00002B162B0883168700102C9D
:100820008312D90E5908DB042C30F700F70B162C75
:10083000192C5B08F8007808D8005708D900590827
:10084000F039DC0059080F39DD00DD0E2C08DC041E
:100850002C08DD04DC0ADD0A5C080538DA005D08D6
:100860000538DB002B162B0883168700372C8312E4
:10087000AB152B08831687000000831207122B127A
:100880002B0883168700442C83128711AB112B0889
:10089000831687007E308312DE0097215A08DE001F
:1008A00097215C08DE0097215B08DE0097215D0838
:1008B000DE0097212B122B0883168700000083127D
:1008C000AB152B08831687008312871D652C682CB7
:1008D000692C00002B162B08831687006F2C2B30F9
:1008E000F700F70B712C742C83122D08013A0319B1
:1008F0007D2C033A0319872C902C5808273C031DA4
:10090000862CC030D9005A220230AD00902C5808F5
:10091000673C031D902C8030D9005A220130AD0075
:1009200008000B08D4008B13831603178C170C14C4
:100930000000000083120313D41B8B1703170C084D
:100940007F390319E52C0313D40003170D08031393
:10095000D50003170F080313D6005408D700282327
:10096000550803178D000313560803178F00031350
:100970000B08D7008B13831603178C170C14000079
:10098000000083120313D71B8B1703170C0D0E0DDA
:100990007F390319E52C0313D40003170D08031343
:1009A000D50003170F080313D6005408D7002823D7
:1009B000550803178D000313560803178F008D0A7F
:1009C00003198F0A0313912C031703130800303007
:1009D00084008313F7010630F8005122B6010800A5
:1009E000E724373084008313F7011030F8005122D8
:1009F000C701C4220800F701F80156080310571870
:100A0000F707F70CF80CD718F707F70CF80C57197D
:100A1000F707F70CF80CD719F707F70CF80C571A6B
:100A2000F707F70CF80CD71AF707F70CF80C571B59
:100A3000F707F70CF80CD71BF707F70CF80C0800B2
:100A40000B08D5008B13831603178C170C140000AA
:100A5000000083120313D51B8B1703178C0803198F
:100A60004A2D0D080313D50003170F080313D600F2
:100A700003170C080313D7002823550803178D000C
:100A80000313560803178F008D0A03198F0A0313E7
:100A9000202D031703130800CE0147084E02031848
:100AA000DD2D37304E07840083130008CF00D001BE
:100AB0005008233C031CDB2D5008D6000730D7001C
:100AC000FB24063078075120F8004F02031DD92D72
:100AD0000230D400D501CB225008D6000730D70011
:100AE000FB247808D4004F08D70028233A30D700D9
:100AF00028232030D7002823583003178D000030DA
:100B00008F000313540803178D0703188F0A03136C
:100B10002025D1015008D6000730D700FB2451080A
:100B200078075120003A0319C72D831688108312C5
:100B300088105008D6000730D700FB2451087807EA
:100B400051202D3C031DA82D0230FA005830AA2D4B
:100B5000FA01C830D2007A08D3005308D400D40A6E
:100B6000D4030319B72DFF30D500AF22B02D5208A2
:100B7000D500AF2283168810831288140230D40067
:100B8000C830D500AF22D40BC02DD10A8A2D023037
:100B9000D400D501CB22613003178D0001308F00C6
:100BA000031391240430D400C830D500AF22D40BF5
:100BB000D42DD00A582DCE0A4D2D0800CE0147085D
:100BC0004E0203186F2E37304E078400831300083F
:100BD000CF00D0015008233C031C6D2E5008D600D6
:100BE0000730D700FB24063078075120F8004F0269
:100BF000031D6B2E0230D400D501CB225008D60045
:100C00000730D700FB247808D4004F08D7002823EA
:100C10003A30D70028232030D70028235830031734
:100C20008D0000308F000313540803178D0703183D
:100C30008F0A03132025D1015008D6000730D700B2
:100C4000FB24510878075120003A0319592E8316C6
:100C50000810831208145008D6000730D700FB2470
:100C60005108780751202D3C031D3A2E0230FA001E
:100C700058303C2EFA01C830D2007A08D30053080D
:100C8000D400D40AD4030319492EFF30D500AF2273
:100C9000422E5208D500AF22831608108312081086
:100CA0000230D400C830D500AF22D40B522ED10A66
:100CB0001C2E0230D400D501CB226A3003178D00E0
:100CC00001308F00031391240430D400C830D500C4
:100CD000AF22D40B662ED00AEA2DCE0ADF2D0800F3
:100CE00080080319852ED0010408CF005010831B03
:100CF00050140008D70028234F088400831350188D
:100D00008317840A0319850A702E08008C1EB42EDE
:100D10008C1E882E1A08CD004D08633A03199A2EAE
:100D2000013A03199C2E0E3A03199E2E613A0319BB
:100D3000A02EA92EF024B42E4C25B42EDE25B42EE0
:100D40000130D400D501CB223730840083137026C4
:100D5000B42E47080F3C031CB42E4708C70A373E81
:100D6000840083134D0880000800AF01AE013530C8
:100D700090008E01FE308F000C308E0083160C1414
:100D8000C03083128B04080083160C1083120B13DF
:100D90008B138B1BC82E2E08F8002F08F9000800B3
:100DA0008316061483120618312F47080F3C031CC4
:100DB000312FB5263230D500AF22831608108312AA
:100DC0000814831688108312881083160614831261
:100DD0000618FE2E2F08013C0318FD2EFF3A031DB6
:100DE000F52E2E08583C0318FD2E8316081083128A
:100DF00008108316881083128814E52E83160810B5
:100E0000831208108316881083128814C426790868
:100E1000CE007808CD004E08013C0318182FFF3A89
:100E2000031D162F4D08583C0318182F2D30192F6D
:100E30002E30CF004F08D0003608B60A303E84006E
:100E400083135008800030303607840083138001FC
:100E50000230D400D501CB223030840083137026B9
:100E6000EC2F8316861483128618CF2F6430D5009A
:100E7000AF22B6080319C92FCD014D08233C031C2E
:100E8000B82F4D08D6000730D700FB247808D400CF
:100E9000D5015408D6004E308400831355088407CA
:100EA00056085120800000380319592FD60AD50A58
:100EB0004B2FD5013030D400D7014E30D600550825
:100EC000FA005408840083137A1883170008D800A6
:100ED0005708FA005608840083137A18831700080D
:100EE0005802031D8A2F5508FA0054088400831302
:100EF0007A1883178008031D802F0030F800A22F76
:100F00005508FA005408D40A0319D50AD60A031959
:100F1000D70A5F2F5508FA00540884008313551828
:100F200083170008D8005708FA0056088400831376
:100F300057188317000858020318A02FFF30A12F5D
:100F40000130F800F808031DB62F4708C70A373EDE
:100F5000840083134D08D6000730D700FB240630E9
:100F600078075120F8008000E724C02FCD0A3D2FDC
:100F70004708C70A373E840083133F308000E724C8
:100F8000C4220130D400D501CB2237308400831332
:100F90007026831686148312861CC92FEC2F8316A5
:100FA000061583120619DE2F3230D500AF224C25EC
:100FB000831606158312061DD82FEC2F831686156F
:100FC00083128619EC2F3230D500AF22DE2583162E
:0A0FD00086158312861DE72F080026
:10100000831606168312061A7B288A11B5268A15BE
:101010003230D5008A11AF228A1583160616831244
:10102000061A24282E08F8002F08F9007908D100A4
:101030007808D0005108033C031C2428031D0D2808
:101040005008E73C03180D288A11C4268A15790830
:10105000CE007808CD004E08023C03187828FF3AED
:10106000031D36284D08E73C031878288A11F02420
:101070008A158A11C4228A150130C80648185628D4
:101080000130D400D5018A11CB228A1573300317A1
:101090008D0001308F008A11031391248A150630C8
:1010A000FA00D030CB007A08CC006B280130D40095
:1010B000D5018A11CB228A157A3003178D000130B1
:1010C0008F008A11031391248A150630FA008630A6
:1010D000CB007A08CC000630CF00FA30D5008A1158
:1010E000AF228A15CF0B6D288A11C4228A157B285E
:1010F0008A11F0248A158A150A12022903081F3959
:1011000083008316031787114D3003139900A6300F
:101110009800903083129800FF30AB000830AC008C
:101120000130AD00AF01AE01B601C7014810831612
:1011300003170908C039890003131F129F120030DA
:101140000317880083128701880189018313031321
:10115000C901CA018A11E1298A1500308316880065
:101160001F308600880102308312880030308400EE
:101170008313F7010630F8008A1151228A1537309F
:1011800084008313F7011030F8008A1151228A1568
:101190008A11C4228A150130D400D5018A11CB22CC
:1011A0008A15803003178D0001308F008A110313D8
:1011B00091248A150230D400D5018A11CB228A15D8
:1011C000883003178D0001308F008A11031391249A
:1011D0008A150630CD00FA30D5008A11AF228A1563
:1011E000CD0BEB288A11C4228A150630FA00D030C4
:1011F000CB007A08CC004B30840083138A119021F5
:081200008A150028FB28630099
:04400E00E22CFF3F62
:00000001FF
;PIC16F887
;CRC=DE12  CREATED="07-Jul-24 22:35"
