:1000000008308A0000280000FF00030E8301A100D1
:100010000A08A0008A010408A2007708A300780853
:10002000A4007908A5007A08A60003170D08031399
:10003000A70003170F080313A80003170C080313E6
:10004000A90003170E080313AA00831383128C3030
:100050008400801E2D288C1A54288C308400001CAB
:1000600033280C185728220884002308F700240896
:10007000F8002508F9002608FA00270803178D0064
:100080000313280803178F000313290803178C0094
:1000900003132A0803178E00031320088A00210E79
:1000A0008300FF0E7F0E09008A110A12C22C8A11EA
:1000B0000A125D290A108A100A11613E03188A0A81
:1000C00082002E342D3400340034003400344134A6
:1000D0002D342E342E342E340034003442342D345A
:1000E0002E342D342E340034003443342D342E3449
:1000F0002E3400340034003444342E3400340034C0
:1001000000340034003445342E342E342D342E3453
:100110000034003446342D342D342E340034003471
:10012000003447342E342E342E342E340034003430
:1001300048342E342E340034003400340034493432
:100140002E342D342D342D34003400344A342D34E3
:100150002E342D340034003400344B342E342D34FE
:100160002E342E34003400344C342D342D340034ED
:100170000034003400344D342D342E340034003437
:10018000003400344E342D342D342D3400340034FA
:1001900000344F342E342D342D342E3400340034BA
:1001A00050342D342D342E342D3400340034513459
:1001B0002E342D342E3400340034003452342E3496
:1001C0002E342E3400340034003453342D340034B3
:1001D000003400340034003454342E342E342D34A2
:1001E00000340034003455342E342E342E342D3463
:1001F0000034003456342E342D342D340034003481
:10020000003457342D342E342E342D340034003441
:1002100058342D342E342D342D34003400345934D8
:100220002D342D342E342E34003400345A342D34F1
:100230002D342D342D342D34003430342E342D34DF
:100240002D342D342D34003431342E342E342D34CD
:100250002D342D34003432342E342E342E342D34BB
:100260002D34003433342E342E342E342E342D34A9
:10027000003434342E342E342E342E342E340034C4
:1002800035342D342E342E342E342E34003436347E
:100290002D342D342E342E342E34003437342D3476
:1002A0002D342D342E342E34003438342D342D3466
:1002B0002D342D342E3400343934AF0A0319B00AEA
:1002C0008E01FE308F000C308E000C100C108A1145
:1002D0000A12332820102010201020102010201087
:1002E00020102010000020102010201020102010BE
:1002F00020102010201000000830F80000008711A6
:10030000AC112C08831687000000F00D8312071231
:10031000031C90292C162C0883168700942983121D
:100320002C122C088316870000008312AC152C08B1
:10033000831687008312871D9B29F80B7E290000F6
:100340008711AC112C0883168700000083122C162D
:100350002C0883168700000000008312AC152C08BF
:10036000831687008312871DB329F8010000071A3E
:1003700078148711AC112C0883168700831207129A
:100380002C122C0883168700831208006B08F039A2
:10039000EE006B080F39EF00EF0E2D08EE042D086C
:1003A000EF046E080438EC006F080438ED002C16DA
:1003B0002C088316870000008312AC152C088316C6
:1003C00087000000831207122C122C088316870066
:1003D000000083128711AC112C08831687007E3031
:1003E000F00083127C216C08F0007C216E08F00084
:1003F0007C216D08F0007C216F08F0007C212C121C
:100400002C088316870000008312AC152C08831675
:1004100087008312871D0A2A00000E2A00002C166E
:100420002C088316870000002B30F700F70B162AE4
:10043000192A831208006730840083130008031907
:100440002F2A0330F800F701F70B242AF80B232A90
:10045000E330F700F70B2A2A0000800B212A08005E
:100460000130EB00C6210230E7001B2208007808AB
:1004700003193F2A77088000840AF80B3A2A0800FB
:10048000F701F801660803106718F707F70CF80C76
:10049000E718F707F70CF80C6719F707F70CF80CD3
:1004A000E719F707F70CF80C671AF707F70CF80CC1
:1004B000E71AF707F70CF80C671BF707F70CF80CAF
:1004C000E71BF707F70CF80C08006608013A031958
:1004D0006D2A033A0319752A7C2A80306707E800E1
:1004E000EB00C6210130AE007C2AC0306707E8006F
:1004F000EB00C6210230AE00080069080A3C031D6B
:10050000952A2E08013A0319892A033A03198F2ADA
:10051000942AC030EB00C6210230AE00942A80300D
:10052000EB00C6210130AE006B2C2D08F238EB0039
:100530006B08EC002C162C08831687000000831231
:10054000AC152C08831687000000831207122C12AA
:100550002C0883168700000083128711AC112C0829
:10056000831687007E30F00083127C216B08F00038
:100570007C216B080438EE00F0007C212C162C083E
:100580008316870000008312AC152C0883168700A1
:1005900000008312871DCA2A07122C122C0883160A
:1005A0008700000083128711AC112C088316870086
:1005B0007F30F00083127C21F7010830EF007708CC
:1005C000F0002C162C088316870000008312AC154F
:1005D0002C08831687008312871DEC2A071A031440
:1005E000071E0310F80D0000AC112C0883168700BD
:1005F00083128711EF0BE12A2C162C088316870033
:10060000000083120712700803190B2B2C122C0800
:100610008316870083120000AC152C088316870010
:100620008312871D112B00008711AC112C08831633
:1006300087000000831207122C122C0883168700F3
:10064000780870398312ED002C162C088316870069
:1006500000008312AC152C0883168700000083125B
:10066000871D302B07122C122C08831687000000E0
:1006700083128711AC112C08831687007E30F0009E
:1006800083127C216B08F0007C216B080438EE009B
:10069000F0007C212C162C088316870000008312A2
:1006A000AC152C088316870000008312871D562B7B
:1006B00007122C122C088316870000008312871162
:1006C000AC112C08831687007F30F00083127C2148
:1006D000F7010830EF007708F0002C162C0883167D
:1006E000870000008312AC152C0883168700831244
:1006F000871D782B071A0314071E0310F80D00003E
:10070000AC112C088316870083128711EF0B6D2B19
:100710002C162C088316870000008312071270081D
:100720000319972B2C122C088316870083120000C4
:10073000AC152C08831687008312871D9D2B0000A3
:100740008711AC112C088316870000008312071252
:100750002C122C08831687007808F0398312EB00DE
:100760002C162C088316870000008312AC152C0869
:100770008316870000008312871DBC2B07122C12E2
:100780002C0883168700000083128711AC112C08F7
:10079000831687007E30F00083127C216C08F00005
:1007A0007C21F830EC056C08F0007C212C122C0820
:1007B0008316870000008312AC152C08831687006F
:1007C0008312871DE12B0000E52B00002C162C085E
:1007D0008316870000008312EB0E6B08ED042C30AB
:1007E000F700F70BF12BF42B6D08F8007808EA00FE
:1007F0006908EB006B08F039EE006B080F39EF0069
:10080000EF0E2D08EE042D08EF04EE0AEF0A6E0835
:100810000538EC006F080538ED002C162C088316FF
:10082000870000008312AC152C0883168700000097
:10083000831207122C122C088316870000008312E3
:100840008711AC112C08831687007E30F0008312CC
:100850007C216C08F0007C216E08F0007C216D0882
:10086000F0007C216F08F0007C212C122C088316EC
:10087000870000008312AC152C08831687008312B2
:10088000871D402C0000442C00002C162C088316D9
:10089000870000002B30F700F70B4C2C4F2C8312F5
:1008A0002E08013A0319582C033A0319622C6B2CB9
:1008B0006A08273C031D612CC030EB00C6210230C2
:1008C000AE006B2C6A08673C031D6B2C8030EB007C
:1008D000C6210130AE0008000B08E6008B1383161A
:1008E00003178C170C140000000083120313E61B7F
:1008F0008B1703170C087F390319C02C0313E6006C
:1009000003170D080313E70003170F080313E8008C
:100910006608E9007D22670803178D000313680845
:1009200003178F0003130B08E9008B1383160317BB
:100930008C170C140000000083120313E91B8B17A3
:1009400003170C0D0E0D7F390319C02C0313E6009D
:1009500003170D080313E70003170F080313E8003C
:100960006608E9007D22670803178D0003136808F5
:1009700003178F008D0A03198F0A03136C2C0317BA
:10098000031308008C1EC22C1A08DF005F08633AAC
:100990000319D12C013A0319E32C0E3A03199D2DAA
:1009A000572E3022313084008313F7010630F800CF
:1009B0003722B701383084008313F7011030F80074
:1009C0003722C801692EE0014808600203189C2DF7
:1009D00038306007840083130008E100E2016208F8
:1009E000233C031C9A2D6208E6000730E7004022F2
:1009F000063078075A20F8006102031D982D023056
:100A0000E600E70165226208E6000730E7004022C1
:100A10007808E6006108E9007D223A30E9007D228D
:100A20002030E9007D22613003178D0000308F00F7
:100A30000313660803178D0703188F0A03130B08A7
:100A4000E7008B13831603178C170C1400000000AB
:100A500083120313E71B8B1703178C080319472D09
:100A60000D080313E70003170F080313E80003172B
:100A70000C080313E9007D22670803178D00031398
:100A8000680803178F008D0A03198F0A1E2D0313A0
:100A9000E3016208E6000730E700402263087807B8
:100AA0005A20003A0319862D831688108312881065
:100AB0006208E6000730E7004022630878075A2002
:100AC0002D3C031D672D0230FA005830692DFA01C4
:100AD000C830E4007A08E5006508E600E60AE603A7
:100AE0000319762DFF30E7001B226F2D6408E70005
:100AF0001B2283168810831288140230E600C83047
:100B0000E7001B22E60B7F2DE30A492D0230E600A9
:100B1000E70165226A3003178D0001308F0003134F
:100B20006C240430E600C830E7001B22E60B932D4E
:100B3000E20AEF2CE00AE42C692EE001480860028A
:100B40000318562E38306007840083130008E10034
:100B5000E2016208233C031C542E6208E6000730C1
:100B6000E7004022063078075A20F8006102031D92
:100B7000522E0230E600E70165226208E6000730E7
:100B8000E70040227808E6006108E9007D223A305B
:100B9000E9007D222030E9007D22613003178D00BD
:100BA00000308F000313660803178D0703188F0AA0
:100BB00003130B08E7008B13831603178C170C1411
:100BC0000000000083120313E71B8B1703178C0828
:100BD0000319012E0D080313E70003170F08031371
:100BE000E80003170C080313E9007D2267080317C8
:100BF0008D000313680803178F008D0A03198F0AED
:100C0000D82D0313E3016208E6000730E700402215
:100C1000630878075A20003A0319402E83160810FB
:100C2000831208146208E6000730E70040226308D8
:100C300078075A202D3C031D212E0230FA0058302F
:100C4000232EFA01C830E4007A08E5006508E600C2
:100C5000E60AE6030319302EFF30E7001B22292E97
:100C60006408E7001B228316081083120810023064
:100C7000E600C830E7001B22E60B392EE30A032EFC
:100C80000230E600E7016522733003178D00013062
:100C90008F0003136C240430E600C830E7001B22E9
:100CA000E60B4D2EE20AA92DE00A9E2D692E48087A
:100CB000C80A383E840083135F0880000130480270
:100CC000E0000130E6006008E70065225F08E90007
:100CD0007D228C128A110A1233284927D02A541DEA
:100CE0002021552AD4274E004927D02A541DA02A56
:100CF0004129540031172026451054294F27471009
:100D000041270001321720272E24202BC9225410FE
:100D1000412748002C162C088316870000008312F8
:100D2000AC152C08831687000000831207122C12C2
:100D30002C0883168700000083128711AC112C0841
:100D4000831687008312AB018B1BAB178B137E308E
:100D5000F0007C21AB1B8B17AB018B1BAB178B13EC
:100D60002C30F0007C21AB1B8B17AB018B1BAB171E
:100D70008B132830F0007C21AB1B8B172730F7003A
:100D8000F70BC02EC32EAB018B1BAB178B132C3074
:100D9000F0007C21AB1B8B17AB018B1BAB178B13AC
:100DA0002830F0007C21AB1B8B17AB018B1BAB17E2
:100DB0008B138C30F0007C21AB1B8B17AB018B1B92
:100DC000AB178B138830F0007C21AB1B8B172730BF
:100DD000F700F70BE92EEC2EAB018B1BAB178B1337
:100DE0000C30F0007C21AB1B8B17AB018B1BAB17BE
:100DF0008B130830F0007C21AB1B8B17AB018B1BD6
:100E0000AB178B13CC30F0007C21AB1B8B17AB01E5
:100E10008B1BAB178B13C830F0007C21AB1B8B17DF
:100E2000112F0000AB018B1BAB178B130C30F000A4
:100E30007C21AB1B8B17AB018B1BAB178B130830C3
:100E4000F0007C21AB1B8B17AB018B1BAB178B13FB
:100E50006C30F0007C21AB1B8B17AB018B1BAB17ED
:100E60008B136830F0007C21AB1B8B172730F70009
:100E7000F70B382F3B2F2C122C088316870000000D
:100E80008312AC152C08831687008312871D462F0A
:100E900000004A2F00002C162C0883168700000043
:080EA00083128A150A123028A2
:1010000003081F39830083160317871570300313F5
:10101000990002309A00A630980090308312980010
:10102000FF30AC000830AD000130AE00B001AF01C0
:10103000B701C8014910831603170908C039890090
:1010400003131F129F1200300317880083128701B9
:101050008801890183130313CA01CB018A118A2EE7
:101060008A150030831688001F3086008801023000
:1010700083128800313084008313F7010630F800B2
:101080008A1137228A15383084008313F701103013
:10109000F8008A1137228A15AB018B1BAB178B1313
:1010A0008A1130228A15AB1B8B17AB018B1BAB1738
:1010B0008B130130E600E7018A1165228A15AB1B0C
:1010C0008B177A3003178D0006308F000313AB01A6
:1010D0008B1BAB178B138A116C248A15AB1B8B17D8
:1010E000AB018B1BAB178B130230E600E7018A11B3
:1010F00065228A15AB1B8B17823003178D000630D3
:101100008F000313AB018B1BAB178B138A116C245D
:101110008A15AB1B8B170630CC00AB018B1BAB17B2
:101120008B13FA30E7008A111B228A15AB1B8B1731
:10113000CC0B8D28AB018B1BAB178B138A11302284
:101140008A15AB1B8B1783160614831206184529C4
:1011500049184529B001AF01353090008E01FE30AD
:101160008F000C308E0083160C14C03083128B0459
:10117000AB018B1BAB178B133230E7008A111B229C
:101180008A15AB1B8B17831608108312081483165D
:101190008810831288108316061483120618E42818
:1011A0003008013C0318E328FF3A031DDB282F0811
:1011B000583C0318E328831608108312081083167E
:1011C000881083128814CB28831608108312081005
:1011D000831688108312881483160C1083120B1345
:1011E0008B138B1BF0282F08F8003008F9007908C2
:1011F000CF007808CE004F08013C03180829FF3AB9
:10120000031D06294E08583C031808292D300929CA
:101210002E30D0005008D1003708B70A313E840084
:101220008313510880003130370784008313800115
:10123000AB018B1BAB178B130230E600E7018A1161
:1012400065228A15AB1B8B1731308400831380080D
:1012500003194429D1010408D0005110831B5114F3
:10126000AB018B1BAB178B130008E9008A117D22A1
:101270008A15AB1B8B1750088400831351188317F2
:10128000840A0319850A27290B2D831686148312D5
:1012900086183F2A49183F2AAB018B1BAB178B13CB
:1012A0006430E7008A111B228A15AB1B8B17B70825
:1012B0000319392ACE014E08233C031CF329AB0144
:1012C0008B1BAB178B134E08E6000730E7008A1123
:1012D00040228A15AB1B8B177808D500D60155081C
:1012E000D7004F30840083135608840757088A11AB
:1012F0005A208A158000003803198129D70AD60A96
:101300007129D6013130D500D8014F30D7005608A9
:10131000FA005508840083137A1883170008D9004F
:101320005808FA005708840083137A1883170008B6
:101330005902031DB2295608FA0055088400831388
:101340007A1883178008031DA8290030F800CA29DD
:101350005608FA005508D50A0319D60AD70A031900
:10136000D80A87295608FA005508840083135618AE
:1013700083170008D9005808FA005708840083131F
:1013800058188317000859020318C829FF30C929C3
:101390000130F800F808031DF1294808C80A383E52
:1013A00084008313AB018B1BAB178B134E08E60035
:1013B0000730E7008A1140228A15AB1B8B170630D5
:1013C00078078A115A208A15F8008000313084008D
:1013D0008313F7010630F8008A1137228A15B70106
:1013E000042ACE0A5B294808C80A383E84008313C1
:1013F0003F308000313084008313F7010630F8005D
:101400008A1137228A15B701AB018B1BAB178B13DF
:101410008A1130228A15AB1B8B17AB018B1BAB17C4
:101420008B130130E600E7018A1165228A15AB1B98
:101430008B1738308400831380080319392AD101AF
:101440000408D0005110831B5114AB018B1BAB1748
:101450008B130008E9008A117D228A15AB1B8B17BC
:1014600050088400831351188317840A0319850ACE
:101470001C2A831686148312861C392A0B2D831688
:10148000061583120619322BAB018B1BAB178B137E
:101490003230E7008A111B228A15AB1B8B17E00143
:1014A0004808600203182C2B38306007840083132F
:1014B0000008E100E2016208233C031C2A2B6208B9
:1014C000E6000730E7008A1140228A1506307807C7
:1014D0008A115A208A15F8006102031D282B023058
:1014E000E600E7018A1165228A156208E6000730E6
:1014F000E7008A1140228A157808E6006108E900B1
:101500008A117D228A153A30E9008A117D228A15D6
:101510002030E9008A117D228A15613003178D0081
:1015200000308F000313660803178D0703188F0A16
:1015300003130B08E7008B13831603178C170C1487
:101540000000000083120313E71B8B1703178C089E
:101550000319C32A0D080313E70003170F08031329
:10156000E80003170C080313E9008A117D228A158D
:10157000670803178D000313680803178F008D0A8F
:1015800003198F0A982A0313E3016208E600073063
:10159000E7008A1140228A15630878078A115A20C9
:1015A0008A15003A0319102B8316881083128810AD
:1015B0006208E6000730E7008A1140228A156308B6
:1015C00078078A115A208A152D3C031DEB2A023018
:1015D000FA005830ED2AFA01C830E4007A08E50034
:1015E0006508E600E60AE6030319FC2AFF30E70077
:1015F0008A111B228A15F32A6408E7008A111B222C
:101600008A1583168810831288140230E600C830C9
:10161000E7008A111B228A15E60B072BE30AC52A6D
:101620000230E600E7018A1165228A156A30031745
:101630008D0001308F008A1103136C248A15043049
:10164000E600C830E7008A111B228A15E60B212B21
:10165000E20A5B2AE00A502A831606158312061D49
:101660002C2B0B2D8316861583128619252CAB0186
:101670008B1BAB178B133230E7008A111B228A15A4
:10168000AB1B8B17E0014808600203181F2C383091
:101690006007840083130008E100E2016208233C34
:1016A000031C1D2C6208E6000730E7008A11402267
:1016B0008A15063078078A115A208A15F8006102C7
:1016C000031D1B2C0230E600E7018A1165228A15F2
:1016D0006208E6000730E7008A1140228A15780880
:1016E000E6006108E9008A117D228A153A30E90096
:1016F0008A117D228A152030E9008A117D228A15FF
:10170000613003178D0000308F0003136608031744
:101710008D0703188F0A03130B08E7008B1383163A
:1017200003178C170C140000000083120313E71B2F
:101730008B1703178C080319B62B0D080313E7004A
:1017400003170F080313E80003170C080313E9003D
:101750008A117D228A15670803178D000313680814
:1017600003178F008D0A03198F0A8B2B0313E301D4
:101770006208E6000730E7008A1140228A156308F4
:1017800078078A115A208A15003A0319032C831608
:101790000810831208146208E6000730E7008A1177
:1017A00040228A15630878078A115A208A152D3C31
:1017B000031DDE2B0230FA005830E02BFA01C8304E
:1017C000E4007A08E5006508E600E60AE603031986
:1017D000EF2BFF30E7008A111B228A15E62B6408E5
:1017E000E7008A111B228A1583160810831208103D
:1017F0000230E600C830E7008A111B228A15E60B8A
:10180000FA2BE30AB82B0230E600E7018A116522C1
:101810008A15733003178D0001308F008A1103136E
:101820006C248A150430E600C830E7008A111B22B8
:101830008A15E60B142CE20A4E2BE00A432B831682
:1018400086158312861D1F2C0B2D831606168312F8
:10185000061A0B2DB001AF01353090008E01FE301D
:101860008F000C308E0083160C14C03083128B0452
:10187000AB018B1BAB178B133230E7008A111B2295
:101880008A15AB1B8B17831606168312061A5A2C61
:101890002F08F8003008F9007908D0007808CF0048
:1018A0005008033C031C5A2C031D432C4F08E73CF3
:1018B0000318432C83160C1083120B138B138B1BF2
:1018C0005E2C2F08F8003008F9007908CD00780860
:1018D000CC004D08023C0318F42CFF3A031D742C75
:1018E0004C08E73C0318F42C0130C9068A11302259
:1018F0008A15313084008313F7010630F8008A110D
:1019000037228A15B701383084008313F70110306D
:10191000F8008A1137228A15C801AB018B1BAB175F
:101920008B138A1130228A15AB1B8B174918BB2CDD
:10193000AB018B1BAB178B130130E600E7018A115B
:1019400065228A15AB1B8B176D3003178D0006308F
:101950008F000313AB018B1BAB178B138A116C2405
:101960008A15AB1B8B1783168C1283120B138B13E8
:101970008B1BB72CDB2CAB018B1BAB178B130130F4
:10198000E600E7018A1165228A15AB1B8B177430BC
:1019900003178D0006308F000313AB018B1BAB17B1
:1019A0008B138A116C248A15AB1B8B1783168C162C
:1019B000C03083128B040630CE00AB018B1BAB17FB
:1019C0008B13FA30E7008A111B228A15AB1B8B1789
:1019D000CE0BDD2CAB018B1BAB178B138A11302286
:1019E0008A15AB1B8B170B2D8A1130228A153130CB
:1019F00084008313F7010630F8008A1137228A1514
:101A0000B701383084008313F7011030F8008A11D1
:0A1A100037228A15C801A3286300DD
:04400E00E22CFF3F62
:00000001FF
;PIC16F887
;CRC=2B58  CREATED="07-Jul-24 03:39"
