:100000000AEF02F0F76A140FF66E000EF7220900ED
:10001000F5501200436F6E73742054657874205449
:1000200065737400F76A340FF66E000EF72209004C
:10003000F55012000A15110A04000000F76A4C0F6F
:10004000F66E000EF7220900F55012004469726541
:10005000637420546578742050617373696E67000F
:10006000C69E9E9683C0C9FF020EC6BE05D09EA640
:10007000FED7000EC5BC010E016E1200EA6A820EA8
:10008000E96EEF5011E0020E016EBF0E006E04002B
:10009000002EFDD7012EF9D7960E006E002EFED74A
:1000A00000D00400EF2EEFD71200816B7E51F00BD1
:1000B0007F6F7E39006EF00E00160050F00B806FDF
:1000C000C580C5B0FED77DC083F0CADF7F518111E6
:1000D00004090809826F836FC3DF0400200E006EDD
:1000E000002EFED700D07F5181110809826F836FE7
:1000F000B7DF0400420E006E002EFED78051811142
:1001000004090809826F836FABDF0400200E006EC4
:10011000002EFED700D0805181110809826F836FB5
:100120009FDFC584C5B4FED77E2D03D0020E826F3B
:10013000A5DF12006D6BC580C5B0FED76CC083F023
:100140008FDF1E0E826F9ADF6D5130090409080996
:100150006E6F836F85DF0400200E006E002EFED7C9
:1001600000D06D51300908096E6F836F79DF0A0E78
:10017000826F84DF6D513009040908096E6F836F47
:100180006FDF0400200E006E002EFED700D06D51F0
:10019000300908096E6F836F63DF0A0E826F6EDFAE
:1001A0006D513009040908096E6F836F59DF04002F
:1001B000200E006E002EFED700D06D5130090809C8
:1001C0006E6F836F4DDF0A0E826F58DF6D5120090D
:1001D000040908096E6F836F43DF0400200E006E70
:1001E000002EFED700D06D51200908096E6F836F75
:1001F00037DFC584C5B4FED70A0E826F3FDF6CC0FF
:100200007DF0280E7E6F51DF6CC07DF0060E7E6F94
:100210004CDF1200010E7B6F765DFC0F26E2040FAF
:1002200074EF01F0010E775D800F7C6F75C07DF07B
:100230007E6F3BDF1AD0010E775DC00F7C6F75C0FB
:100240007DF07E6F32DF11D0010E775D940F7C6FF1
:1002500075C07DF07E6F29DF08D0010E775DD40F69
:100260007C6F75C07DF07E6F20DF7851F00B796F69
:100270007839006EF00E00160050F00B7A6FC580D2
:10028000C5B0FED775C083F0EBDE79517B11040950
:1002900008097C6F836FE4DE0400200E006E002EE0
:1002A000FED700D079517B1108097C6F836FD8DEAF
:1002B0000400420E006E002EFED77A517B11040915
:1002C00008097C6F836FCCDE0400200E006E002EC8
:1002D000FED700D07A517B1108097C6F836FC0DE96
:1002E000C584C5B4FED71200E824F76AF736030FB9
:1002F000F66E030EF7220A00F550FA6E0800F5506C
:10030000F96E2402360248025A0272C003F071C02C
:10031000E9FF72C0EAFFEF5216E07051702B736F65
:1003200072C003F07151712BD8B4722BE96E03C007
:10033000EAFFEFCF78F06EC075F06FC076F073C053
:1003400077F068DFE2D71200010E756F7251F00B83
:10035000736F7239006EF00E00160050F00B746F60
:10036000C580C5B0FED771C083F07ADE73517511B8
:1003700004090809766F836F73DE0400200E006E97
:10038000002EFED700D0735175110809766F836F68
:1003900067DE0400420E006E002EFED77451751108
:1003A00004090809766F836F5BDE0400200E006E7F
:1003B000002EFED700D0745175110809766F836F37
:1003C0004FDEC584C5B4FED7F7EF01F06CC07DF0F9
:1003D000400E7E6F6ADE6F6B6F5107080AE3036A97
:1003E0006F5120DE706F6CC071F0726FADD76F2BE4
:1003F000F3D76CC07DF0020E7E6F57DE020E826F67
:100400003DDE6CC075F06DC076F06EC077F0786B35
:1004100001DF1200F86AD09E94869488CB90CB922C
:10042000CB96130EC86E280EC66EC78EC79C0F01E2
:10043000386B396B3A6B3B6B3C6B0101886B776AAD
:10044000786A796A2CD0540004493243204C4344E2
:100450002034204269740050494331384634364BC9
:1004600032322038204D487A0043435320432C2019
:1004700045617379504943207637004C43442061ED
:100480006464726573732030783037004C434420C5
:100490006164647265737320307830360000000E3A
:1004A000F86E040EF76E460EF66E0900F550006EFB
:1004B000000A13E00900F550016EE8BE05D00F0BED
:1004C000EA6E0900F5CFE9FF01BC090001AC0900A3
:1004D000F5CFEEFF004EE9D7F9D7F86A130EC86ED4
:1004E000280EC66EC78E4E0E00016C6F23DE4E0EB8
:1004F0007D6F0C0E7E6FD9DD4E0E7D6F010E7E6F0F
:10050000D4DD4C0E6C6F16DE4C0E7D6F0C0E7E6FC4
:10051000CCDD4C0E7D6F010E7E6FC7DD4E0E6E6F13
:10052000010E6F6F706F726B040E716FEEDE4E0E08
:100530006E6F020E6F6F010E706F726B120E716F25
:10054000E4DE4E0E6E6F030E6F6F010E706F726BF6
:10055000240E716FDADE4E0E6E6F040E6F6F010E99
:10056000706F726B360E716FD0DE4C0E6E6F010EB7
:100570006F6F706F726B040E716FC7DE4C0E6E6F13
:10058000020E6F6F010E706F726B120E716FBDDE17
:100590004C0E6E6F030E6F6F010E706F726B240E38
:1005A000716FB3DE4C0E6E6F040E6F6F010E706FC5
:1005B000726B470E716FA9DE140E6C6FFA0E826FAC
:1005C0005DDD6C2FFBD74E0E7D6F010E7E6F6DDDF6
:1005D000EA6A580EE96E100E016EF76A000E12DD1F
:1005E0000A000900F5CFEEFF012EFBD74E0E6E6F0D
:1005F000010E6F6F706F726B580E716F86DEEA6A54
:10060000580EE96E140E016EF76A000E17DD0A002F
:100610000900F5CFEEFF012EFBD74E0E6E6F020ED6
:100620006F6F010E706F726B580E716F6EDE4E0E33
:100630006C6F030E6D6F0A0E6E6FC8DE4C0E7D6F11
:10064000010E7E6F32DDEA6A580EE96E100E016E01
:10065000F76A000ED7DC0A000900F5CFEEFF012E85
:10066000FBD74C0E6E6F010E6F6F706F726B580E72
:10067000716F4BDEEA6A580EE96E140E016EF76A6E
:10068000000EDCDC0A000900F5CFEEFF012EFBD7DF
:100690004C0E6E6F020E6F6F010E706F726B580E04
:1006A000716F33DE4C0E6C6F030E6D6F0A0E6E6F42
:0606B0008DDEFFD7030000
:020000040030CA
:0E00000000A3123C00B181000FC00FE00F40C2
:00000001FF
;PIC18F46K22
;CRC=AF2C  CREATED="04-May-15 06:33"
