:1000000004308A00AB2C00000C28F234ED32693940
:100010006110EC346E3461178A39E5337537E4309A
:1000200020366937E8302E000A2A6539E33269390B
:100030006110EC346E3461178A28F530723A611021
:10004000EC346E34611700018720C221C422C6231C
:10005000C824CA25CC26CE27D028D22954008A30DD
:10006000E231E432E633E834EA35EC36EE37F038A4
:10007000F23974008A18B219B41AB61BB81CB01839
:10008000B219B41AB61BB81C30008A10C011242F44
:100090002615A814FB3EDB2EBA1D3C1FBF173D00E2
:1000A000A02A6D10EE3AED32F237A0326D00A03189
:1000B00061326110E3306E3A6F1700010C10A0211D
:1000C0006139E131F432F2327310EC34E437730504
:1000D00000012032EF39A038F53074396F10E33069
:1000E0006E3AEF393A050A00201020102010A53191
:1000F000A0126310A531A01263000C10202AE5396C
:10010000F4306E326F10E33AF2396F392E05C33A8C
:10011000F2396F392036E93361326F05423669377B
:100120006B10E4327336E93361326F1D20000C101E
:10013000202AE539F4306E326F10E33AF2396F3924
:100140002E05C33AF2396F392032E539EC34E73005
:10015000E4370A21EC34EE352036E93361326F1D85
:100160002010201000010C10202AE539F4306E32E6
:100170006F10E33AF2396F392E05C33AF2396F390D
:100180002036E93361326F05423669376B10EC3443
:10019000E730E4373A10201020000C2AE539F43219
:1001A000A021521F3E000C266537E437A0326E3284
:1001B0006539E5316F10E4378A317539F3377217D5
:1001C00000018C217539F3377210E539F430F630BF
:1001D00020376105F037F334E3306F1D2018F81233
:1001E00058000C1020102010C230E335EC34673476
:1001F0007405201020102032E539EC34E730E43764
:1002000000010C1020102010C230E335EC346734AC
:100210007405201020102036E93361326F000C1075
:1002200020102010C230E335EC3467347405201000
:1002300020102032E539EC34E730E43700010C229D
:10024000E5396537E8306E326F10C330F230633A0B
:10025000653965050A102010201020000C052010BB
:100260002010A0002023C926A110A0000000941394
:100270008C113C0893000230941B45298C1D3E29AB
:1002800000308316111B01308312F800080083161A
:100290001114111849297E308312BC0037212C30EB
:1002A000BC0037212830BC0037211A30F700F70B8B
:1002B000572900002C30BC0037212830BC003721E2
:1002C0008C30BC0037218830BC0037211A30F70051
:1002D000F70B682900000C30BC0037210830BC0047
:1002E0003721CC30BC003721C830BC0037217829F9
:1002F0000C30BC0037210830BC0037216C30BC000A
:1003000037216830BC0037211A30F700F70B8629F7
:1003100000008316111511198B2983128A11E42C00
:100320003708F039BA0037080F39BB00BB0E210877
:10033000BA042108BB043A080438B8003B08043862
:10034000B900831611141118A3297E308312BC0042
:1003500037213808BC0037213A08BC00372139085A
:10036000BC0037213B08BC00372183161115111939
:10037000B7291D30F700F70BBB298312080037306F
:100380008400831300080319D2290230F800F70112
:10039000F70BC829F80BC7299730F700F70BCE29C0
:1003A000800BC52908003708F039BA0037080F3923
:1003B000BB00BB0E2108BA042108BB04BA0ABB0A61
:1003C0003A080538B8003B080538B90083161114FF
:1003D0001118E8297E308312BC0037213808BC0090
:1003E00037213A08BC0037213908BC0037213B08C7
:1003F000BC003721831611151119FC291D30F70097
:10040000F70B002A8312080035080A3C031D262A30
:1004100001302202FC3E0318222A043E5D2AC0302D
:10042000B6000230A200222A9430B6000330A200A7
:10043000222AD430B6000430A200222A8030B6002E
:100440000130A2003608B70090215C2A35080D3C27
:10045000031D402A01302202FC3E03183C2A043EC0
:10046000652A8030B6003C2AC030B6003C2A943061
:10047000B6003C2AD430B6003608B70090215C2A7A
:100480003508073C031D4C2A8030B6003608B700FB
:1004900090210130A2005C2A35080C3C031D592A2A
:1004A0000130B70090210230B700BF210130A20017
:1004B0005C2A3508B700D32108000A108A140A11F3
:1004C00082070F2A142A192A1E2A0A108A140A11CE
:1004D0008207312A342A372A3A2A0B08B1008B13B3
:1004E000831603178C170C140000000083120313EB
:1004F000B11B8B1703170C087F390319C12A03138B
:10050000B10003170D080313B20003170F080313FC
:10051000B3003108B5000422320803178D0003131D
:10052000330803178F0003130B08B4008B138316D3
:1005300003178C170C140000000083120313B41B64
:100540008B1703170C0D0E0D7F390319C12A0313E6
:10055000B10003170D080313B20003170F080313AC
:10056000B3003108B5000422320803178D000313CD
:10057000330803178F008D0A03198F0A03136D2A9E
:100580000317031308003108B70090210800023058
:10059000B70090210230B700BF218A111C2D013015
:1005A000B70090210230B700BF218A11472D320BCE
:1005B000DF2A01303102B3008030B307FC2A320851
:1005C000023C031DE92A01303102B300C030B307F9
:1005D000FC2A3208033C031DF32A01303102B30028
:1005E0009430B307FC2A3208043C031DFC2A013076
:1005F0003102B300D430B3073308B70090210800AC
:100600001413831691159119032B77189112771CE7
:1006100091161116111A0A2B83121308F8000800FC
:10062000320B182B01303102B3008030B307352B69
:100630003208023C031D222B01303102B300C030CE
:10064000B307352B3208033C031D2C2B013031023C
:10065000B3009430B307352B3208043C031D352B0F
:1006600001303102B300D430B3073308B700902112
:100670002108F338B4003408B5008316111411189A
:100680003F2B7E308312BC0037213408BC00372159
:1006900034080438B700BC00372183169114911830
:1006A0004F2B7F308312BC003721F70100237808DD
:1006B000F039B6008316911491185C2B7E308312AA
:1006C000BC0037213408BC00372134080438B70097
:1006D000BC0037218316911491186C2B7F30831244
:1006E000BC003721F70100237808F039B4008316E5
:1006F00091149118792B7E308312BC003721350874
:10070000BC003721F830B5053508BC003721831609
:1007100011151119892B1D30F700F70B8D2B902B1C
:100720008312B40E3408B6043608F80008000B082B
:10073000B2008B13831603178C170C1400000000F3
:1007400083120313B21B8B170318CE2B03170C084D
:100750007F390313B20003170D080313B300031707
:100760000F080313B4003208B5000422330803173E
:100770008D000313340803178F0003130B08B50013
:100780008B13831603178C170C14000000008312C0
:100790000313B51B8B17B10BCE2BED2B03170C0DD1
:1007A0000E0D7F390313B20003170D080313B300B6
:1007B00003170F080313B4003208B50004223308EE
:1007C00003178D000313340803178F008D0A0319D4
:1007D0008F0A03100313B10B972B08000C30B104E0
:1007E0003108B700902108002108F238B100310823
:1007F000B200831611141118FB2B7E308312BC003B
:1008000037213108BC00372131080438B400BC005E
:1008100037218316911491180B2C7F308312BC0062
:100820003721F701002378087039B300831691143B
:100830009118182C7E308312BC0037213108BC007F
:10084000372131080438B400BC00372183169114D5
:100850009118282C7F308312BC003721F701002328
:100860007808F039B100831691149118352C7E3038
:100870008312BC0037213208BC003721F830B205A2
:100880003208BC003721831611151119452C83122B
:10089000B10E3108B3041D30F700F70B4D2C502C6E
:1008A0003308F8008A113A2EB21B662C0F30F7007D
:1008B000310EF7050A3077020318612C3030F70744
:1008C000632C3208F7077708B50004220F30B10512
:1008D0000A30310203186E2C3030702CB2133208FB
:1008E000B1073108B50004228A114B2E3108A1004E
:1008F0008316111411187A2C7E308312BC00372114
:100900003108BC003721831611151119852C83126B
:100910000800B10DB10DB10DF830B1053117310836
:10092000B7009021B4013408073C031CA32C340801
:10093000320784008313331883170008B500B7000B
:10094000D321B40A932C8030B700902108003108DD
:10095000B700D321080003081F39830071308316C4
:100960008F0090010F08FF308312A000A01520080F
:100970008316870083122016200883168700043010
:1009800093002830831294008316941314130830B4
:100990008312A1000130A200A401A3018316031752
:1009A0000908C039890003131F129F120030031772
:1009B000880083128701880189018313831603133A
:1009C0000610831206104729043003178D000030EB
:1009D0008F0003136D22143003178D0000308F0039
:1009E00003136D221030B100FA30B700BF21B10BF4
:1009F000F42CA5012508133C031C0A2D1C30B10062
:100A0000C3220230B100FA30B700BF21B10B032D71
:100A1000A50AFA2CA5012508093C031C1B2D18303A
:100A2000B100C3220230B100FA30B700BF21B10BD0
:100A3000142DA50A0B2DC72A0830B100FA30B700D3
:100A4000BF21B10B1E2D243003178D0000308F0005
:100A500003136D222F3003178D0000308F00031316
:100A60006D223A3003178D0000308F0003136D2282
:100A7000453003178D0000308F0003136D220C30BA
:100A8000B100FA30B700BF21B10B412DCF2A04309D
:100A9000B100FA30B700BF21B10B492D0430B100CD
:100AA0000230B200D722503003178D0000308F0083
:100AB00003136D220430B1000330B200D722573047
:100AC00003178D0000308F0003136D220130B10039
:100AD000B200D7223130B50004221430B100013009
:100AE000B200D7223230B50004221430B1000430F5
:100AF000B200D7223330B50004220130B1000430F7
:100B0000B200D7223430B50004221030B100FA30E0
:100B1000B700BF21B10B872D0130B100B200102307
:100B20007808A5001430B1000130B2001023780815
:100B3000A6001430B1000430B20010237808A700DA
:100B40000130B1000430B20010237808A8005E30F4
:100B500003178D0000308F0003136D2269300317D7
:100B60008D0000308F0003136D22743003178D0049
:100B700000308F00031006300313B10097232508BF
:100B8000B50004222030B50004222608B500042256
:100B90002030B50004222708B50004222030B5001B
:100BA00004222808B50004221030B100FA30B70042
:100BB000BF21B10BD62D7D3003178D0000308F0083
:100BC00003136D220230B100EE231030B100FA3071
:100BD000B700BF21B10BE72D973003178D00003010
:100BE0008F0003136D220130B100EE231030B100ED
:100BF000FA30B700BF21B10BF82DB33003178D00C9
:100C000000308F0003136D220330B100EE2310304B
:100C1000B100FA30B700BF21B10B092ECD30031758
:100C20008D0000308F0003136D220430B100FA30C4
:100C3000B700BF21B10B172E0D30B50004220C30C8
:100C4000B100FA30B700BF21B10B212ED33003170A
:100C50008D0000308F0003136D220B30B100043083
:100C6000B200D7220C30B100FA30B700BF21B10B6F
:100C7000342EF42B7808A500E13003178D000030E6
:100C80008F0003101D300313B10097232508B10016
:100C90003730B200542C1030B100FA30B700BF2109
:100CA000B10B4D2EB101EE23F13003178D00003052
:100CB0008F0003136D22B10176240C30B100FA309D
:100CC000B700BF21B10B5F2E013003178D0001303B
:100CD0008F0003136D220830B10076240C30B10070
:100CE000FA30B700BF21B10B702E0F3003178D0003
:100CF00001308F0003136D22B10176240C30B10056
:100D0000FA30B700BF21B10B802E0A30A900AA002B
:100D1000AB00AC011130AD000E30AE00AF01B00140
:100D20000130B100B3012930B20089240A30A90092
:100D3000AA00AB00AC010E30AD001130AE00AF0127
:100D4000B0010730B100B3012930B20089240A3064
:100D5000A9001F30AA00AB000E30AC000430AD007B
:100D6000AE011F30AF00B0010430B100B301293033
:100D7000B20089241F30A9001030AA001F30AB0038
:100D80000130AC001F30AD001030AE001F30AF009E
:100D9000B001B101B3012930B20089241F3003171B
:100DA0008D0001308F0003136D220130B100A724A4
:100DB0002030B50004220730B100A7242030B50050
:100DC00004220430B100A7242030B5000422B10170
:100DD000A7241430B100FA30B700BF21B10BEB2EBD
:100DE0002E3003178D0001308F0003136D22013068
:100DF00086060430B100FA30B700BF21B10BFB2EDC
:040E0000F72E630066
:04400E00E4200007A3
:00000001FF
;PIC16F883
;CRC=3D5C  CREATED="29-set-15 22:15"
