:1000000002308A00362A00000A108A100A1182077C
:1000100028340C3401340634CC21C4164919C310D9
:10002000A1100000CC21C4164919C310A110000072
:10003000353084008313000803192B280630F8009C
:10004000F701F70B2128F80B20287B30F700F70B7E
:100050002728800B1E2808000830F800000007122F
:10006000201220088316870000008312C20D87111A
:10007000031C4028A01520088316870044288312FB
:10008000A011200883168700000083122016200884
:10009000831687008312071E4B28F80B2E280000BA
:1000A0000712201220088316870000008312A01573
:1000B0002008831687000000000083122016200805
:1000C000831687008312071E6328F8010000871932
:1000D00078140712201220088316870083128711D4
:1000E000A011200883168700831208004008003AF8
:1000F00003197E28013A0319A328C9283F0EF700E7
:10010000F030F70577082404C100C2002C2000005D
:100110003F0EF700F030F705770804382404C100DB
:10012000C2002C200230F700F70B9428972800001B
:100130003F0EF700F030F7057708FB392404C100C3
:10014000C2002C20C9283F0EF700F030F7057708D1
:1001500001382404C100C2002C2000003F0EF7002B
:10016000F030F7057708013804382404C100C200D4
:100170002C200230F700F70BBB28BE2800003F0EF2
:10018000F700F030F705770801382404C100C200F9
:100190002C200800A0152008831687000000831279
:1001A0002016200883168700000083128711A011F3
:1001B00020088316870000008312071220122008EF
:1001C000831687004E308312C2002C203C0EBE00E6
:1001D0000F30BE053E08BF003D08C00076203C0839
:1001E0000F39BE00BF003D08C0007620A0112008D6
:1001F00083168700000083122016200883168700CC
:100200008312071E0129000005290000A0152008FF
:10021000831687000000831208000130BC00BD0176
:10022000CA200230B50018200130A30008000830B1
:10023000A4000B138B138B1B1A293230B500182026
:10024000A0152008831687000000831220162008BE
:1002500083168700000083128711A01120088316DF
:1002600087000000831207122012200883168700DF
:100270004E308312C2002C20BF01C00176200F3007
:10028000B50018200130B1003108033C031C51298E
:100290000330BF00C00176200530B5001820B10A38
:1002A00044290230BF00C00176200530B500182077
:1002B000A011200883168700000083122016200852
:1002C000831687008312071E632900006729000038
:1002D000A01520088316870000008312B1013108A1
:1002E000033C031C7E2931080420B200BC00BD0180
:1002F000CA200530B5001820B10A6F290D21C03081
:100300008B048A110A126B2A3608210203188B29E2
:100310002108B7008D293608B7003708013A0319BC
:100320009B29033A03199D29013A0319A029073A89
:100330000319A329A629B901A7294030B900A72983
:100340001430B900A7295430B900A729B9013508DC
:1003500022020318AE292208B800B0293508B800D7
:10036000013038023907BA003A088038BB00BC00B7
:10037000BD01CA20080034080C3A0319C629063A00
:100380000319C829023A0319D529DA290D21DF29D1
:10039000A30A230821020318CF290130A30001304A
:1003A000B5002308B6008421DF291030BC00BD0150
:1003B000CA20DF293408BC000130BD00CA20080073
:1003C0000B08B1008B13831603178C170C14000055
:1003D000000083120313B11B8B1703170C087F391E
:1003E0000319342A0313B10003170D080313B200D5
:1003F00003170F080313B3003108B400BB21320800
:1004000003178D000313330803178F0003130B0822
:10041000B4008B13831603178C170C140000000014
:1004200083120313B41B8B1703170C0D0E0D7F39AA
:100430000319342A0313B10003170D080313B20084
:1004400003170F080313B3003108B400BB213208AF
:1004500003178D000313330803178F008D0A031948
:100460008F0A0313E02903170313080003081F3939
:100470008300813083169900A63098009030831253
:100480009800FF30A0000430A1001430A200013019
:10049000A3000830A4003030AA003130AB00323065
:1004A000AC003330AD003430AE004030AF004130EE
:1004B000B00083161F149F141F159F118313303033
:1004C0008312A5003130A6003230A7003330A800D7
:1004D0003430A90017290D210130B500B600842160
:1004E0000C3003178D0000308F000313E0210D2125
:1004F0000130B500B6008421123003178D000030A2
:100500008F000313E0210430B100FA30B500182049
:08051000B10B852A772A630074
:02400E00323F3F
:00000001FF
;PIC16F877
;CRC=EBAC  CREATED="26-Jun-24 15:23"
