:1000000000308A0019280000313084008313000872
:10001000031918280330F800F701F70B0D28F80B27
:100020000C28E330F700F70B13280000800B0A2898
:10003000080003081F3983000230A0001430A1001B
:100040000130A2000830A3003030A9003130AA00EE
:100050003230AB003330AC003430AD004030AE0055
:100060004130AF0083161F149F141F159F11831377
:1000700030308312A4003130A5003230A600333076
:10008000A7003430A800003083168800880183124E
:1000900088010430B000FA30B1000420B00B4B28C6
:1000A00083168801FF30831288000430B000FA30D4
:0E00B000B1000420B00B5728831646286300C9
:02400E00323F3F
:00000001FF
;PIC16F877
;CRC=41C1  CREATED="04-Jul-24 05:03"
