:1000000002308A00F22A00000A108A100A118207C0
:1000100028340C3401340634CC21C4164919C310D9
:10002000A1100000C4224D1D253200003230840092
:100030008313000803192A280130F800F701F70B91
:100040001F28F80B1E284A30F700F70B2528282810
:10005000800B1C2808000830F80000008711A01150
:1000600020088316870000008312BF0D0712031CAF
:100070003F28201620088316870043288312201269
:1000800020088316870000008312A015200883161D
:1000900087008312871D4A28F80B2D28000087113E
:1000A000A011200883168700000083122016200864
:1000B00083168700000000008312A0152008831615
:1000C00087008312871D6228F8010000071A781440
:1000D0008711A011200883168700831207122012AF
:1000E000200883168700831208003D08003A031990
:1000F0007D28013A03199D28BE283C0EF700F030F8
:10010000F70577082404BE00BF002B2000003C0E3A
:10011000F700F030F705770804382404BE00BF006C
:100120002B2092283C0EF700F030F7057708FB39BA
:100130002404BE00BF002B20BE283C0EF700F03088
:10014000F705770801382404BE00BF002B2000000B
:100150003C0EF700F030F705770801380438240426
:10016000BE00BF002B20B4283C0EF700F030F7058E
:10017000770801382404BE00BF002B200800201699
:1001800020088316870000008312A015200883161C
:1001900087000000831207122012200883168700B0
:1001A000000083128711A0112008831687004E30AB
:1001B0008312BF002B20390EBB000F30BB053B085C
:1001C000BC003A08BD00752039080F39BB00BC00DF
:1001D0003A08BD0075202012200883168700000011
:1001E0008312A0152008831687008312871DF62826
:1001F0000000FA280000201620088316870000005F
:10020000831208000130B900BA01BF200230B200E9
:1002100016200130A30008000830A4000B138B1334
:100220008B1B0F293230B2001620201620088316AF
:10023000870000008312A0152008831687000000A5
:1002400083120712201220088316870000008312F1
:100250008711A0112008831687004E308312BF003B
:100260002B20BC01BD0175200F30B20016200130DB
:10027000AB002B08033C031C46290330BC00BD0126
:1002800075200530B2001620AB0A39290230BC00B7
:10029000BD0175200530B2001620201220088316FB
:1002A000870000008312A0152008831687008312A0
:1002B000871D582900005C2900002016200883169D
:1002C000870000008312AB012B08033C031C732939
:1002D0002B080420AC00B900BA01BF200530B200E1
:1002E0001620AB0A64290221C0308B048A110A123D
:1002F000122B33082102031880292108B400822917
:100300003308B4003408013A03199029033A031959
:100310009229013A03199529073A031998299B292B
:10032000B6019C294030B6009C291430B6009C29A7
:100330005430B6009C29B601320822020318A329C2
:100340002208B500A5293208B5000130350236076C
:10035000B70037088038B800B900BA01BF200800DC
:1003600031080C3A0319BB29063A0319BD29023A90
:100370000319CA29CF290221D429A30A230821025B
:100380000318C4290130A3000130B2002308B300D0
:100390007921D4291030B900BA01BF20D4293108FD
:1003A000B9000130BA00BF2008000B08AB008B1366
:1003B000831603178C170C1400000000831203131C
:1003C000AB1B8B1703170C087F390319292A03135A
:1003D000AB0003170D080313AC0003170F0803133A
:1003E000AD002B08B100B0212C0803178D000313BA
:1003F0002D0803178F0003130B08AE008B13831611
:1004000003178C170C140000000083120313AE1B9B
:100410008B1703170C0D0E0D7F390319292A0313AF
:10042000AB0003170D080313AC0003170F080313E9
:10043000AD002B08B100B0212C0803178D00031369
:100440002D0803178F008D0A03198F0A0313D5296E
:10045000031703138A110A121E2B0B08AC008B130F
:10046000831603178C170C1400000000831203136B
:10047000AC1B8B170318642A03170C087F3903136E
:10048000AC0003170D080313AD0003170F08031387
:10049000AE002C08B100B0212D0803178D00031306
:1004A0002E0803178F0003130B08AF008B1383165E
:1004B00003178C170C140000000083120313AF1BEA
:1004C0008B17AB0B642A832A03170C0D0E0D7F3993
:1004D0000313AC0003170D080313AD0003170F0837
:1004E0000313AE002C08B100B0212D0803178D00B6
:1004F00003132E0803178F008D0A03198F0A0310A8
:100500000313AB0B2D2A8A110A122D2B3208F80186
:10051000310203188E2A3108F7009A2AF7010830B1
:10052000B300B10DF70D320877020318F700F80D8C
:10053000B30B912A080020302C1E3030AD002B0860
:10054000F700AB1FAB2AF709F70A7708AB002D308D
:10055000AD00AC172C142B08B1006430B200862219
:100560007708AB0030307807AE002B08B1000A30B6
:10057000B200862230307707B00030307807AF0005
:100580002D08F70030302E020319CA2AAC14AC1B18
:100590002C15DE2A2D08AE002030AD0030302F02A1
:1005A0000319D62A2C14AC1BAC14DE2A031D2C1400
:1005B000031DDE2A2E08AF002030AE002C19E52ADC
:1005C000AC18E82A2C18EB2AEE2A2D08B100B0212D
:1005D0002E08B100B0212F08B100B0213008B100C1
:1005E000B021080003081F398300FF30A000043049
:1005F000A1001430A2000130A3000830A40083162B
:100600001F149F141F159F1107309C008313831222
:10061000A501A6015A30A7000130A900A801193090
:10062000AA000C2902210130B200B30079210C305C
:1006300003178D0000308F000313D5290130B2005D
:100640000230B3007921123003178D0000308F0083
:10065000031004300313AB002D2A2708AB00183019
:10066000AC009B220A30B2000230B3007921433043
:10067000B100B0213A30B100B0212A08AB001830E7
:08068000AC009B221E2B63005D
:02400E00313F40
:00000001FF
;PIC16F877A
;CRC=CD12  CREATED="11-Mar-23 10:52"
