:1000000000308A0019280000223084008313000881
:10001000031918280330F800F701F70B0D28F80B27
:100020000C28E330F700F70B13280000800B0A2898
:10003000080003081F3983008316031787114D300A
:1000400003139900A6309800903083129800FF3077
:10005000A000831603170908C039890003131F1273
:100060009F120030031788008312870188018901DD
:100070008313003083160313880088010330831232
:1000800088000230A100FA30A2000420A10B43280E
:1000900083168801831288010230A100FA30A20081
:0C00A0000420A10B4E2883163D286300AD
:04400E00E22CFF3F62
:00000001FF
;PIC16F887
;CRC=3906  CREATED="04-Jul-24 05:12"
