:1000000003308A00452B0000C634F2397410EC34FA
:10001000EE322E05D332E3376E322036693765175C
:10002000200500000830F80000008711A01120080A
:100030008316870000008312B90D0712031C2628BF
:1000400020162008831687002A28831220122008F1
:100050008316870000008312A015200883168700EE
:100060008312871D3128F80B142800008711A01176
:1000700020088316870000008312201620088316AC
:100080008700000000008312A01520088316870057
:100090008312871D4928F8010000071A7814871178
:1000A000A01120088316870083120712201220084F
:1000B0008316870083120800201620088316870005
:1000C00000008312A0152008831687000000831209
:1000D0000712201220088316870000008312871160
:1000E000A0112008831687007E308312B9001220E9
:1000F0002C30B90012202830B90012202730F70028
:10010000F70B802883282C30B90012202830B90042
:1001100012208C30B90012208830B900122027300C
:10012000F700F70B912894280C30B9001220083002
:10013000B9001220CC30B9001220C830B90012200A
:10014000A12800000C30B90012200830B90012209C
:100150006C30B90012206830B90012202730F70047
:10016000F70BB028B3282012200883168700000060
:100170008312A0152008831687008312871DBE28CE
:100180000000C22800002016200883168700000007
:1001900083128A110A12832B3408F039B70034080D
:1001A0000F39B800B80E2108B7042108B804370881
:1001B0000438B50038080438B60020162008831625
:1001C000870000008312A015200883168700000016
:1001D0008312071220122008831687000000831262
:1001E0008711A0112008831687007E308312B90082
:1001F00012203508B90012203708B900122036083D
:10020000B90012203808B9001220201220088316E5
:10021000870000008312A015200883168700831230
:10022000871D1029000014290000201620088316BD
:10023000870000002B30F700F70B1C291F298312C1
:1002400008000830B8007708B90020162008831687
:10025000870000008312A0152008831687008312F0
:10026000871D3029071A0314071E0310F80D00001C
:10027000A01120088316870083128711B80B252947
:100280002016200883168700000083120712390801
:1002900003194F29201220088316870083120000BB
:1002A000A0152008831687008312871D552900009A
:1002B0008711A011200883168700000083120712FF
:1002C00020122008831687008312080032080A3C97
:1002D000031D7E292208013A03197229033A0319E2
:1002E00078297D29C030B400CC200230A2007D29BD
:1002F0008030B400CC200130A200CE2A2108F23890
:10030000B4003408B50020162008831687000000CA
:100310008312A0152008831687000000831207129D
:100320002012200883168700000083128711A01175
:100330002008831687007E308312B900122034080B
:10034000B900122034080438B700B9001220201672
:1003500020088316870000008312A015200883164A
:10036000870000008312871DB3290712201220087E
:1003700083168700000083128711A01120088316BE
:1003800087007F308312B9001220F70121217808FD
:100390007039B600201620088316870000008312EB
:1003A000A01520088316870000008312871DD62918
:1003B000071220122008831687000000831287117D
:1003C000A0112008831687007E308312B900122006
:1003D0003408B900122034080438B700B9001220DC
:1003E000201620088316870000008312A01520081D
:1003F0008316870000008312871DFC290712201234
:10040000200883168700000083128711A01120089E
:10041000831687007F308312B9001220F701212153
:100420007808F039B40020162008831687000000F1
:100430008312A01520088316870000008312871DF1
:100440001F2A07122012200883168700000083123B
:100450008711A0112008831687007E308312B9000F
:1004600012203508B9001220F830B5053508B9005A
:100470001220201220088316870000008312A01586
:100480002008831687008312871D442A0000482A0B
:100490000000201620088316870000008312B40E87
:1004A0003408B6042C30F700F70B542A572A3608C4
:1004B000F8007808B3003208B4003408F039B70007
:1004C00034080F39B800B80E2108B7042108B80461
:1004D000B70AB80A37080538B50038080538B60035
:1004E000201620088316870000008312A01520081C
:1004F000831687000000831207122012200883163B
:100500008700000083128711A0112008831687003E
:100510007E308312B90012203508B9001220370846
:10052000B90012203608B90012203808B90012208C
:10053000201220088316870000008312A0152008CF
:10054000831687008312871DA32A0000A72A0000B4
:10055000201620088316870000002B30F700F70BC9
:10056000AF2AB22A83122208013A0319BB2A033A9E
:100570000319C52ACE2A3308273C031DC42AC030DC
:10058000B400CC200230A200CE2A3308673C031D01
:10059000CE2A8030B400CC200130A20008000B0825
:1005A000AF008B13831603178C170C140000000088
:1005B00083120313AF1B8B1703170C087F39031922
:1005C000232B0313AF0003170D080313B000031709
:1005D0000F080313B1002F08B2006621300803177B
:1005E0008D000313310803178F0003130B08B200AB
:1005F0008B13831603178C170C1400000000831252
:100600000313B21B8B1703170C0D0E0D7F39031943
:10061000232B0313AF0003170D080313B0000317B8
:100620000F080313B1002F08B2006621300803172A
:100630008D000313310803178F008D0A03198F0AE9
:100640000313CF2A031703138A110A128E2B30309B
:1006500084008313000803193B2B0330F800F701D3
:10066000F70B302BF80B2F2BE330F700F70B362B63
:100670000000800B2D2B08000130B400CC2002308C
:10068000B00027238A110A129B2B03081F3983000D
:100690008316031787114D3003139900A630980075
:1006A000903083129800FF30A0000830A100013084
:1006B000A2003030A8003130A9003230AA00333017
:1006C000AB003430AC004030AD004130AE0083169A
:1006D00003170908C039890003131F129F12003045
:1006E0000317880083128701880189018313303042
:1006F0000313A3003130A4003230A5003330A6002C
:100700003430A7005C280030831688000430831240
:1007100003178D0000308F000313CF2A8316880142
:100720000230831288000430AF00FA30B000272373
:10073000AF0B952B3C2B8316880103308312880066
:100740000430AF00FA30B0002723AF0BA22B831682
:04075000862B630091
:04400E00E22CFF3F62
:00000001FF
;PIC16F887
;CRC=4DD9  CREATED="04-Jul-24 10:13"
