:1000000005308A00ED2D0000FF00030E8301A100E2
:100010000A08A0008A010408A2007708A300780853
:10002000A4007908A5007A08A60003170D08031399
:10003000A70003170F080313A80003170C080313E6
:10004000A90003170E080313AA00831383128C3030
:100050008400001C2D280C184E2822088400230838
:10006000F7002408F8002508F9002608FA002708F8
:1000700003178D000313280803178F0003132908A3
:1000800003178C0003132A0803178E00031320089C
:100090008A00210E8300FF0E7F0E09008A110A12CA
:1000A0005128B70A0319B80A8E01FE308F000C30B0
:1000B0008E000C100C108A110A122D285039E539C7
:1000C0007310D32B3110F437A031F232613A65004E
:1000D0000830F80000008711AB112B088316870049
:1000E000000083120317940D03130712031C7E28CC
:1000F0002B162B0883168700822883122B122B08BD
:100100008316870000008312AB152B088316870027
:100110008312871D8928F80B6A2800008711AB110C
:100120002B0883168700000083122B162B088316DA
:100130008700000000008312AB152B088316870090
:100140008312871DA128F8010000071A781487116F
:10015000AB112B0883168700831207122B122B0872
:1001600083168700831208002B162B08831687003E
:1001700000008312AB152B08831687000000831242
:1001800007122B122B088316870000008312871199
:10019000AB112B08831687007E308312031794005F
:1001A000031368202C3003179400031368202830B1
:1001B00003179400031368202730F700F70BDE289D
:1001C000E1282C300317940003136820283003170C
:1001D0009400031368208C300317940003136820E5
:1001E000883003179400031368202730F700F70BBB
:1001F000F728FA280C3003179400031368200830FE
:100200000317940003136820CC30031794000313E2
:100210006820C83003179400031368200F290000DA
:100220000C30031794000313682008300317940060
:10023000031368206C3003179400031368206830A0
:1002400003179400031368202730F700F70B2629C3
:1002500029292B122B088316870000008312AB1567
:100260002B08831687008312871D34290000382944
:1002700000002B162B0883168700000083128A11BA
:100280000A12BE2E780803194A2977088000840ACA
:10029000F80B45298A110A12CE2E83166F08F03901
:1002A000831203179200831603136F080F3983120A
:1002B00003179300930E03132C08031792040313E0
:1002C0002C0803179304120804389000130804380C
:1002D000910003132B162B0883168700000083124E
:1002E000AB152B08831687000000831207122B1210
:1002F0002B0883168700000083128711AB112B088F
:10030000831687007E30831203179400031368203E
:1003100003171008940003136820031712089400B1
:1003200003136820031711089400031368200317B0
:1003300013089400031368202B122B0883168700E0
:1003400000008312AB152B08831687008312871DCC
:10035000A7290000AB2900002B162B088316870065
:1003600000002B30F700F70BB329B62983120800E1
:10037000EB308400831300080319CC290330F80004
:10038000F701F70BC129F80BC029E330F700F70B91
:10039000C7290000800BBE29080001308316EF003A
:1003A00083124D2102308316EB008312B82108001E
:1003B00083166A08013A83120319E229033A0319E2
:1003C000EA29F32983166B08EF0083124D210130CF
:1003D000AD00F329403083166B07EC00EF00831269
:1003E0004D210230AD000800083003179300770854
:1003F000940003132B162B0883168700000083122A
:10040000AB152B08831687008312871D052A071A50
:100410000314071E0310F80D0000AB112B08831600
:100420008700831287110317930BF92903132B16E7
:100430002B08831687000000831207120317140885
:100440000319292A03132B122B0883168700831202
:10045000031700000313AB152B08831687008312C4
:10046000871D302A00008711AB112B0883168700E7
:100470000000831207122B122B08831687008312A9
:10048000080083166D080A3C031D602A83122D089C
:10049000013A03194F2A033A0319572A5E2AC0303A
:1004A0008316EF0083124D210230AD005E2A8030AA
:1004B0008316EF0083124D210130AD00F72B831618
:1004C00083122C08F2388316EF006F08831203178B
:1004D000900003132B162B0883168700000083124D
:1004E000AB152B08831687000000831207122B120E
:1004F0002B0883168700000083128711AB112B088D
:10050000831687007E30831203179400031368203C
:1005100083166F0883120317940003136820831651
:100520006F080438831203179200940003136820A5
:100530002B162B088316870000008312AB152B089F
:100540008316870000008312871DA42A07122B122E
:100550002B0883168700000083128711AB112B082C
:10056000831687007F3083120317940003136820DB
:10057000F701F421780870390317910003132B1643
:100580002B088316870000008312AB152B088316F7
:10059000870000008312871DCB2A07122B122B081D
:1005A00083168700000083128711AB112B08831676
:1005B00087007E308312031794000313682083168C
:1005C0006F088312031794000313682083166F08C3
:1005D00004388312031792009400031368202B162B
:1005E0002B088316870000008312AB152B08831697
:1005F000870000008312871DFB2A07122B122B088D
:1006000083168700000083128711AB112B08831615
:1006100087007F3083120317940003136820F701CB
:10062000F4217808F0398316EF0083122B162B087B
:100630008316870000008312AB152B0883168700F2
:1006400000008312871D222B07122B122B08831602
:100650008700000083128711AB112B0883168700D7
:100660007E308312031794000313682003171008C9
:10067000940003136820F8300317900510089400C5
:10068000031368202B122B088316870000008312A7
:10069000AB152B08831687008312871D4D2B000096
:1006A000512B00002B162B08831687000000EF0E3D
:1006B0006F088312031791042C30F700F70B5E2BA1
:1006C000612B1108F800780883160313EE006D08FB
:1006D000EF006F08F039831203179200831603139B
:1006E0006F080F39831203179300930E03132C081E
:1006F0000317920403132C0803179304920A930A16
:1007000012080538900013080538910003132B16C2
:100710002B088316870000008312AB152B08831665
:1007200087000000831207122B122B088316870004
:10073000000083128711AB112B08831687007E30CF
:100740008312031794000313682003171008940002
:10075000031368200317120894000313682003177B
:10076000110894000313682003171308940003135F
:1007700068202B122B088316870000008312AB150C
:100780002B08831687008312871DC42B0000C82BFB
:1007900000002B162B088316870000002B30F70073
:1007A000F70BD02BD32B83122D08013A0319DC2B26
:1007B000033A0319EA2BF72B83166E08273C031D17
:1007C000E82BC030EF0083124D210230AD008316BC
:1007D0008312F72B83166E08673C031DF62B8030BF
:1007E000EF0083124D210130AD0083168312080003
:1007F0000B088316E80083128B13831603178C17DC
:100800000C14000000000313E81F092C83128B173F
:100810008316831203170C087F3903196A2C831679
:100820000313E800831203170D0883160313E9006E
:10083000831203170F0883160313EA006808ED00FC
:100840008312412283166908831203178D008316D1
:1008500003136A08831203178F0003130B08831610
:10086000EB0083128B13831603178C170C140000F4
:1008700000000313EB1F3F2C83128B178316831288
:1008800003170C0D0E0D7F3903196A2C8316031301
:10089000E800831203170D0883160313E90083127F
:1008A00003170F0883160313EA006808ED0083128C
:1008B000412283166908831203178D0083160313E0
:1008C0006A08831203178F008D0A03198F0A031316
:1008D000F82B031703138A110A12DC2E83166A08F9
:1008E0000739F7006A0CF800F80CF80C1F30F8050F
:1008F00078086C07840083136D188317F801F80AD1
:10090000F70A832CF80DF70B822CEB0803198B2CBC
:10091000780880048E2CF809780880058312080076
:1009200083166A080739F7006A0CF800F80CF80C0F
:100930001F30F80578086B07840083136C18831741
:100940000008F800F70AA52CF80CF70BA42C83126A
:100950000800B901080030088316EA000130EB00F6
:10096000ED018030EC0083126E2430088316EA001B
:10097000EC01EB018312902478187B2DB801B701AC
:10098000353090008E01FE308F000C308E008316C3
:100990000C14C03083128B0436088316EA00EB0176
:1009A000ED01EC0183126E2436088316EA00EB0198
:1009B000ED018030EC0083126E2430088316EA00CB
:1009C0000130EB00ED018030EC0083126E24300822
:1009D0008316EA00EC01EB018312902478181A2D9B
:1009E0003808003C0318192DFF3A031DFB2C37086B
:1009F000903C0318192D36088316EA000130EB00ED
:100A0000ED01EC0183126E2436088316EA00EB0137
:100A1000ED018030EC0083126E2404308316EA006E
:100A2000FA30EB008312B8218316EA0B102D8312E3
:100A30001A2DDD2C36088316EA000130EB00ED019B
:100A4000EC0183126E2436088316EA00EB01ED01F7
:100A50008030EC0083126E2483160C1083120B136B
:100A60008B138B1B302D3708F8003808F9007908F4
:100A70008316E9007808E8006908003C0318492D4E
:100A8000FF3A031D472D6808903C0318492D01309B
:100A90004A2D0030EA006A08EB0003108312390D7A
:100AA00083166B048312B90002308316EA0001300A
:100AB000EB008312D8218316EB013A30EA006B0871
:100AC000FA006A08840083137A18831780080319D0
:100AD0007A2D6B08FA006A08EA0A0319EB0A840007
:100AE00083137A1883170008EC00ED00831241226B
:100AF00083165F2D831231088316EA000130EB0064
:100B0000ED018030EC0083126E2431088316EA0078
:100B1000EC01EB01831290247818EA2D8316EA0188
:100B20006A08233C031CCB2D03106A0DA03E8400F1
:100B30008313000883123902031DC82D0310831686
:100B40006A0D013EA03E840083130008EB00ED0017
:100B5000831241224A08CA0A3A3EF800FA010318F1
:100B6000FA0A78088316EB007A08EC0003106A0D85
:100B7000013EA03E840083130008ED006B08840052
:100B800083136C1883176D0880008312A924D72D56
:100B90008316EA0A902D3F30ED00831241224A0865
:100BA000CA0A3A3E840083133F308000A9243108EA
:100BB0008316EA000130EB00ED018030EC00831277
:100BC0006E2431088316EA00EC01EB0183129024B5
:100BD000781CD72D8A110A12E92E03081F398300C9
:100BE0008316031787114D3003139900A630980020
:100BF000903083129800FF30AB000830AC00013019
:100C0000AD004030B5004130B600B801B701B901C0
:100C1000CA01831603170908C039890003131F127C
:100C20009F12003003178800831287018801890111
:100C300083130313AE01AF013030B0003130B10087
:100C40003230B2003330B3003430B4006130BA0017
:100C5000BB00BC00BD00BE00BF00C000C10102302F
:100C60008316A0004130A1000730A2004230A3004B
:100C70000530A4004330A5000330A6004430A7008F
:100C8000A8014530A9000B30AA004630AB00063061
:100C9000AC004730AD000F30AE004830AF0003303D
:100CA000B0004930B1000830B2004A30B30005301E
:100CB000B4004B30B5000D30B6004C30B700B80171
:100CC0004D30B9000130BA004E30BB00BC014F308E
:100CD000BD000930BE005030BF000230C0005130AE
:100CE000C1000430C2005230C3000730C40053308A
:100CF000C5000130C6005430C7000C30C800553064
:100D0000C9001C30CA005630CB000430CC0057302C
:100D1000CD001430CE005830CF001530D0005930FF
:100D2000D1000C30D2005A30D3001F30D400303004
:100D3000D5000F30D6003130D7000730D800323020
:100D4000D9000330DA003330DB000130DC0034300E
:100D5000DD00DE013530DF001030E0003630E1002C
:100D60001830E2003730E3001C30E4003830E50092
:100D70001E30E6003930E7008312B42800308316B5
:100D800088001F30860088010230831288003A30C4
:100D900084008313F7011030F8004229CD2101307F
:100DA0008316EA00EB008312D8215E3003178D0012
:100DB00000308F000313F82B06308316E800FA305A
:100DC000EB008312B8218316E80BDF2E8312CD21AE
:060DD000AB2CE82E6300CD
:04400E00E22CFF3F62
:00000001FF
;PIC16F887
;CRC=16A6  CREATED="05-Jul-24 16:21"
