:1000000006308A001E2E0000FF00030E8301A100AF
:100010000A08A0008A010408A2007708A300780853
:10002000A4007908A5007A08A60003170D08031399
:10003000A70003170F080313A80003170C080313E6
:10004000A90003170E080313AA00831383128C3030
:100050008400001C2D280C184E2822088400230838
:10006000F7002408F8002508F9002608FA002708F8
:1000700003178D000313280803178F0003132908A3
:1000800003178C0003132A0803178E00031320089C
:100090008A00210E8300FF0E7F0E09008A110A12CA
:1000A0009D280A108A100A1182070234413407344D
:1000B00042340534433403344434003445340B347F
:1000C0004634063447340F34483403344934083452
:1000D0004A3405344B340D344C3400344D3401343F
:1000E0004E3400344F340934503402345134043423
:1000F000523407345334013454340C3455341C34E2
:1001000056340434573414345834153459340C34B8
:100110005A341F3430340F3431340734323403341A
:100120003334013434340034353410343634183434
:1001300037341C3438341E343934B70A0319B80A3A
:100140008E01FE308F000C308E000C100C108A11C6
:100150000A122D28CC22202AD227CE23A0204E00FE
:100160004E174810D624452AA0204E2400000830FF
:10017000F80000008711AB112B08831687000000E0
:100180008312E20D0712031CCB282B162B088316B3
:100190008700CF2883122B122B08831687000000BC
:1001A0008312AB152B08831687008312871DD62870
:1001B000F80BB92800008711AB112B0883168700B4
:1001C000000083122B162B08831687000000000006
:1001D0008312AB152B08831687008312871DEE2828
:1001E000F8010000071A78148711AB112B08831649
:1001F0008700831207122B122B08831687008312A5
:1002000008002B162B088316870000008312AB15FD
:100210002B08831687000000831207122B122B086D
:1002200083168700000083128711AB112B088316F9
:1002300087007E308312E200B7202C30E200B72026
:100240002830E200B7202730F700F70B25292829AE
:100250002C30E200B7202830E200B7208C30E200DA
:10026000B7208830E200B7202730F700F70B362997
:1002700039290C30E200B7200830E200B720CC303A
:10028000E200B720C830E200B720462900000C3059
:10029000E200B7200830E200B7206C30E200B7205F
:1002A0006830E200B7202730F700F70B55295829AE
:1002B0002B122B088316870000008312AB152B0826
:1002C000831687008312871D6329000067290000B9
:1002D0002B162B0883168700000083128A110A123E
:1002E000592E78080319792977088000840AF80BB9
:1002F000742908005D08F039E0005D080F39E1005D
:10030000E10E2E08E0042E08E10460080438DE0047
:1003100061080438DF002B162B08831687000000C5
:100320008312AB152B088316870000008312071277
:100330002B122B0883168700000083128711AB1144
:100340002B08831687007E308312E200B7205E08F8
:10035000E200B7206008E200B7205F08E200B720A3
:100360006108E200B7202B122B08831687000000DB
:100370008312AB152B08831687008312871DBE29B5
:100380000000C22900002B162B08831687000000EE
:100390002B30F700F70BCA29CD29831208005A30F9
:1003A0008400831300080319E3290330F800F701E0
:1003B000F70BD829F80BD729E330F700F70BDE2924
:1003C0000000800BD52908000130DD007A210230C1
:1003D000DA00CF2108005908013A0319F329033A3A
:1003E0000319FB29022A80305A07DB00DD007A213D
:1003F0000130AF00022AC0305A07DB00DD007A214D
:100400000230AF0008000830E1007708E2002B1648
:100410002B088316870000008312AB152B08831668
:1004200087008312871D122A071A0314071E031060
:10043000F80D0000AB112B0883168700831287117B
:10044000E10B072A2B162B08831687000000831266
:10045000071262080319312A2B122B088316870012
:1004600083120000AB152B08831687008312871DAB
:10047000372A00008711AB112B0883168700000074
:10048000831207122B122B08831687008312080091
:100490005B080A3C031D602A2F08013A0319542AFD
:1004A000033A03195A2A5F2AC030DD007A2102304C
:1004B000AF005F2A8030DD007A210130AF00B02B21
:1004C0002E08F238DD005D08DE002B162B0883169F
:1004D000870000008312AB152B08831687000000ED
:1004E000831207122B122B08831687000000831239
:1004F0008711AB112B08831687007E308312E20030
:10050000B7205D08E200B7205D080438E000E20093
:10051000B7202B162B088316870000008312AB151B
:100520002B088316870000008312871D952A071267
:100530002B122B0883168700000083128711AB1142
:100540002B08831687007F308312E200B720F70163
:10055000032278087039DF002B162B0883168700DA
:1005600000008312AB152B0883168700000083124E
:10057000871DB82A07122B122B088316870000004C
:1005800083128711AB112B08831687007E308312EC
:10059000E200B7205D08E200B7205D080438E00003
:1005A000E200B7202B162B08831687000000831269
:1005B000AB152B088316870000008312871DDE2AE7
:1005C00007122B122B088316870000008312871155
:1005D000AB112B08831687007F308312E200B7200F
:1005E000F70103227808F039DD002B162B0883165B
:1005F000870000008312AB152B08831687000000CC
:100600008312871D012B07122B122B0883168700DC
:10061000000083128711AB112B08831687007E30F0
:100620008312E200B7205E08E200B720F830DE0552
:100630005E08E200B7202B122B088316870000000B
:100640008312AB152B08831687008312871D262B78
:1006500000002A2B00002B162B08831687000000B1
:100660008312DD0E5D08DF042C30F700F70B362B0C
:10067000392B5F08F8007808DC005B08DD005D08B6
:10068000F039E0005D080F39E100E10E2E08E004CA
:100690002E08E104E00AE10A60080538DE0061087E
:1006A0000538DF002B162B08831687000000831205
:1006B000AB152B08831687000000831207122B123C
:1006C0002B0883168700000083128711AB112B08BB
:1006D000831687007E308312E200B7205E08E200B6
:1006E000B7206008E200B7205F08E200B720610889
:1006F000E200B7202B122B0883168700000083121C
:10070000AB152B08831687008312871D852B0000ED
:10071000892B00002B162B088316870000002B3036
:10072000F700F70B912B942B83122F08013A031932
:100730009D2B033A0319A72BB02B5C08273C031D04
:10074000A62BC030DD007A210230AF00B02B5C0850
:10075000673C031DB02B8030DD007A210130AF00F3
:1007600008000B08D2008B13831603178C170C1488
:100770000000000083120313D21B8B1703170C0811
:100780007F390319052C0313D20003170D08031337
:10079000D30003170F080313D4005208DB004822CC
:1007A000530803178D000313540803178F00031316
:1007B0000B08D5008B13831603178C170C1400003D
:1007C000000083120313D51B8B1703170C0D0E0D9E
:1007D0007F390319052C0313D20003170D080313E7
:1007E000D30003170F080313D4005208DB0048227C
:1007F000530803178D000313540803178F008D0A45
:1008000003198F0A0313B12B0317031308005908A8
:100810000739F700590CF800F80CF80C1F30F805F0
:1008200078085B07840083135C188317F801F80AC3
:10083000F70A1B2CF80DF70B1A2CDA080319232CD6
:1008400078088004262CF8097808800508005908E3
:100850000739F700590CF800F80CF80C1F30F805B0
:1008600078085A07840083135B1883170008F80080
:10087000F70A3B2CF80CF70B3A2C080080080319F8
:10088000532CDA010408D9005A10831B5A140008AB
:10089000DB0048225908840083135A188317840AFE
:1008A0000319850A3E2C0800B9013A3084008313ED
:1008B000F7010630F8007121C001080041308400C2
:1008C0008313F7011030F8007121D10108003008BE
:1008D000D9000130DA00DC018030DB000724300869
:1008E000D900DB01DA01272478180B2DB801B701F4
:1008F000353090008E01FE308F000C308E00831654
:100900000C14C03083128B043230DA00CF2135084A
:10091000D9000130DA00DC01DB0107243508D900F9
:10092000DA01DC018030DB0007243008D900013017
:10093000DA00DC018030DB0007243008D900DB015D
:10094000DA0127247818BD2C3808003C0318BC2C89
:10095000FF3A031DAF2C3708F43C0318BC2C3508B4
:10096000D900DA01DC01DB0107243508D900DA01FE
:10097000DC018030DB000724952C3508D900DA0132
:10098000DC01DB0107243508D900DA01DC01803005
:10099000DB00072483160C1083120B138B138B1BA5
:1009A000CE2C3708F8003808F9007908D300780809
:1009B000D2005308003C0318E62CFF3A031DE42C38
:1009C0005208F43C0318E62C0130E72C0030D90023
:1009D0005908DA000310390D5A04B9004008C00A5A
:1009E0003A3E840083135308003C0318002DFF3A5D
:1009F000031DFE2C5208F43C0318002D2D30012D50
:100A00002E3080000230D900DA01EB213A30840028
:100A100083133E241B2E3108D9000130DA00DC019B
:100A20008030DB0007243108D900DB01DA012724FC
:100A30007818592D3230DA00CF21D9015908233CDA
:100A4000031C382D0310590D5120F8003902031DE5
:100A5000362D5108D10A413E840083130310590DED
:100A6000013E5120F80080005424402DD90A1E2D4B
:100A70005108D10A413E840083133F308000542442
:100A8000E4210130D900DA01EB21413084008313E5
:100A90003E243108D9000130DA00DC018030DB006F
:100AA00007243108D900DB01DA012724781C492DFD
:100AB0001B2E3208D9000130DA00DC018030DB0067
:100AC00007243208D900DB01DA0127247818D22D57
:100AD0003230DA00CF21D401510854020318C22D5C
:100AE00041305407840083130008D500D60156080E
:100AF000233C031CC02D0310560D013E5120F8006D
:100B00005502031DBE2D0310560D5120F800D700CD
:100B1000D8015808043C031CB72D3608D900DA0167
:100B2000DC01DB0107243608D900DA01DC01803062
:100B3000DB000724571E9E2DF4309F2D6430D90012
:100B4000DA00CF213608D9000130DA00DC01DB0100
:100B500007243608D900DA01DC018030DB000724E5
:100B6000C830DA00CF210310D70DD80A892D043000
:100B7000D900C830DA00CF21D90BB92DD60A772D8C
:100B8000D40A6C2D3208D9000130DA00DC01803043
:100B9000DB0007243208D900DB01DA012724781CA6
:100BA000C22D1B2E3308D9000130DA00DC01803061
:100BB000DB0007243308D900DB01DA012724781889
:100BC000F72D1E30DA00CF21E42154245E243308AF
:100BD000D9000130DA00DC018030DB000724330863
:100BE000D900DB01DA012724781CE72D1B2E3408FD
:100BF000D9000130DA00DC018030DB000724340842
:100C0000D900DB01DA01272478181B2E1E30DA0008
:100C1000CF21E42154245E243208D9000130DA00C7
:100C2000DC018030DB0007243208D900DB01DA0167
:100C30002724781C0C2E8A110A12902E03081F39C3
:100C400083008316031787114D3003139900A630D4
:100C50009800903083129800FF30AB000830AE004F
:100C60000130AF004030B5004130B600B801B701E7
:100C7000B901C001D101831603170908C0398900E1
:100C800003131F129F12003003178800831287017D
:100C90008801890183130313AC01AD013030B0002A
:100CA0003130B1003230B2003330B3003430B400F0
:100CB00001290030831688001F3086008801023029
:100CC000831288003A3084008313F7010630F8005D
:100CD0007121413084008313F7011030F800712135
:100CE000E4210130D900DA01EB21AA3003178D008D
:100CF00000308F000313B1230230D900DA01EB2159
:100D0000B03003178D0000308F000313B12306307D
:100D1000D200FA30DA00CF21D20B892EE421672CE1
:040D20008F2E6300AF
:04400E00E22CFF3F62
:00000001FF
;PIC16F887
;CRC=DDA4  CREATED="05-Jul-24 22:29"
